{
  "contractName": "Voting",
  "abi": [
    {
      "inputs": [
        {
          "internalType": "uint256",
          "name": "_numberOfWinningProposals",
          "type": "uint256"
        }
      ],
      "stateMutability": "nonpayable",
      "type": "constructor"
    },
    {
      "anonymous": false,
      "inputs": [
        {
          "indexed": false,
          "internalType": "uint256",
          "name": "proposalId",
          "type": "uint256"
        }
      ],
      "name": "ProposalRegistered",
      "type": "event"
    },
    {
      "anonymous": false,
      "inputs": [
        {
          "indexed": false,
          "internalType": "address",
          "name": "voter",
          "type": "address"
        },
        {
          "indexed": false,
          "internalType": "uint256",
          "name": "proposalId",
          "type": "uint256"
        }
      ],
      "name": "Voted",
      "type": "event"
    },
    {
      "anonymous": false,
      "inputs": [
        {
          "indexed": false,
          "internalType": "address",
          "name": "voterAddress",
          "type": "address"
        }
      ],
      "name": "VoterRegistered",
      "type": "event"
    },
    {
      "anonymous": false,
      "inputs": [
        {
          "indexed": false,
          "internalType": "enum Voting.WorkflowStatus",
          "name": "previousStatus",
          "type": "uint8"
        },
        {
          "indexed": false,
          "internalType": "enum Voting.WorkflowStatus",
          "name": "newStatus",
          "type": "uint8"
        }
      ],
      "name": "WorkflowStatusChange",
      "type": "event"
    },
    {
      "inputs": [],
      "name": "numberOfWinningProposals",
      "outputs": [
        {
          "internalType": "uint256",
          "name": "",
          "type": "uint256"
        }
      ],
      "stateMutability": "view",
      "type": "function",
      "constant": true
    },
    {
      "inputs": [],
      "name": "status",
      "outputs": [
        {
          "internalType": "enum Voting.WorkflowStatus",
          "name": "",
          "type": "uint8"
        }
      ],
      "stateMutability": "view",
      "type": "function",
      "constant": true
    },
    {
      "inputs": [
        {
          "internalType": "address",
          "name": "",
          "type": "address"
        }
      ],
      "name": "voters",
      "outputs": [
        {
          "internalType": "bool",
          "name": "isRegistered",
          "type": "bool"
        },
        {
          "internalType": "bool",
          "name": "hasVoted",
          "type": "bool"
        },
        {
          "internalType": "uint256",
          "name": "votedProposalId",
          "type": "uint256"
        }
      ],
      "stateMutability": "view",
      "type": "function",
      "constant": true
    },
    {
      "inputs": [
        {
          "internalType": "uint256",
          "name": "",
          "type": "uint256"
        }
      ],
      "name": "winningProposalIds",
      "outputs": [
        {
          "internalType": "uint256",
          "name": "",
          "type": "uint256"
        }
      ],
      "stateMutability": "view",
      "type": "function",
      "constant": true
    },
    {
      "inputs": [
        {
          "internalType": "address",
          "name": "_voterAddress",
          "type": "address"
        }
      ],
      "name": "registerVoter",
      "outputs": [],
      "stateMutability": "nonpayable",
      "type": "function"
    },
    {
      "inputs": [],
      "name": "getVoterCount",
      "outputs": [
        {
          "internalType": "uint256",
          "name": "",
          "type": "uint256"
        }
      ],
      "stateMutability": "view",
      "type": "function",
      "constant": true
    },
    {
      "inputs": [],
      "name": "getVoters",
      "outputs": [
        {
          "internalType": "address[]",
          "name": "",
          "type": "address[]"
        }
      ],
      "stateMutability": "view",
      "type": "function",
      "constant": true
    },
    {
      "inputs": [],
      "name": "getProposalCount",
      "outputs": [
        {
          "internalType": "uint256",
          "name": "",
          "type": "uint256"
        }
      ],
      "stateMutability": "view",
      "type": "function",
      "constant": true
    },
    {
      "inputs": [],
      "name": "getProposals",
      "outputs": [
        {
          "components": [
            {
              "internalType": "string",
              "name": "description",
              "type": "string"
            },
            {
              "internalType": "uint256",
              "name": "voteCount",
              "type": "uint256"
            }
          ],
          "internalType": "struct Voting.Proposal[]",
          "name": "",
          "type": "tuple[]"
        }
      ],
      "stateMutability": "view",
      "type": "function",
      "constant": true
    },
    {
      "inputs": [],
      "name": "getAdmin",
      "outputs": [
        {
          "internalType": "address",
          "name": "",
          "type": "address"
        }
      ],
      "stateMutability": "view",
      "type": "function",
      "constant": true
    },
    {
      "inputs": [],
      "name": "startProposalsRegistration",
      "outputs": [],
      "stateMutability": "nonpayable",
      "type": "function"
    },
    {
      "inputs": [
        {
          "internalType": "string",
          "name": "_description",
          "type": "string"
        }
      ],
      "name": "registerProposal",
      "outputs": [],
      "stateMutability": "nonpayable",
      "type": "function"
    },
    {
      "inputs": [
        {
          "internalType": "address",
          "name": "_address",
          "type": "address"
        }
      ],
      "name": "removeVoter",
      "outputs": [],
      "stateMutability": "nonpayable",
      "type": "function"
    },
    {
      "inputs": [
        {
          "internalType": "uint256",
          "name": "_proposalId",
          "type": "uint256"
        }
      ],
      "name": "removeProposal",
      "outputs": [],
      "stateMutability": "nonpayable",
      "type": "function"
    },
    {
      "inputs": [],
      "name": "endProposalsRegistration",
      "outputs": [],
      "stateMutability": "nonpayable",
      "type": "function"
    },
    {
      "inputs": [],
      "name": "startVotingSession",
      "outputs": [],
      "stateMutability": "nonpayable",
      "type": "function"
    },
    {
      "inputs": [
        {
          "internalType": "uint256",
          "name": "_proposalId",
          "type": "uint256"
        }
      ],
      "name": "vote",
      "outputs": [],
      "stateMutability": "nonpayable",
      "type": "function"
    },
    {
      "inputs": [],
      "name": "endVotingSession",
      "outputs": [],
      "stateMutability": "nonpayable",
      "type": "function"
    },
    {
      "inputs": [],
      "name": "countVotes",
      "outputs": [],
      "stateMutability": "nonpayable",
      "type": "function"
    },
    {
      "inputs": [],
      "name": "getWinner",
      "outputs": [
        {
          "internalType": "uint256[]",
          "name": "",
          "type": "uint256[]"
        }
      ],
      "stateMutability": "view",
      "type": "function",
      "constant": true
    }
  ],
  "bytecode": "0x60806040523480156200001157600080fd5b5060405162002d1338038062002d138339818101604052810190620000379190620000fb565b806004819055506000600360006101000a81548160ff021916908360058111156200006757620000666200012d565b5b0217905550336000806101000a81548173ffffffffffffffffffffffffffffffffffffffff021916908373ffffffffffffffffffffffffffffffffffffffff1602179055506000600281905550506200015c565b600080fd5b6000819050919050565b620000d581620000c0565b8114620000e157600080fd5b50565b600081519050620000f581620000ca565b92915050565b600060208284031215620001145762000113620000bb565b5b60006200012484828501620000e4565b91505092915050565b7f4e487b7100000000000000000000000000000000000000000000000000000000600052602160045260246000fd5b612ba7806200016c6000396000f3fe608060405234801561001057600080fd5b506004361061012c5760003560e01c80638e7ea5b2116100ad578063cdd7225311610071578063cdd72253146102c1578063e09b8c79146102df578063e154cfba146102e9578063ee74c67814610307578063fe4159bc146103115761012c565b80638e7ea5b21461023f578063a3ec138d1461025d578063a7bfab161461028f578063b647990a14610299578063c08cc02d146102a35761012c565b80634ce4e6c7116100f45780634ce4e6c7146101c157806362564c48146101dd5780636c297445146101fb5780636e9960c31461020557806386c1ff68146102235761012c565b80630121b93f1461013157806311174a291461014d578063200d2ed21461016b5780632f95355b1461018957806338db6dd3146101a5575b600080fd5b61014b60048036038101906101469190611b1b565b610341565b005b610155610637565b6040516101629190611b57565b60405180910390f35b610173610641565b6040516101809190611be9565b60405180910390f35b6101a3600480360381019061019e9190611d4a565b610654565b005b6101bf60048036038101906101ba9190611df1565b610859565b005b6101db60048036038101906101d69190611b1b565b6109b6565b005b6101e5610bec565b6040516101f29190611fab565b60405180910390f35b610203610ce7565b005b61020d610e55565b60405161021a9190611fdc565b60405180910390f35b61023d60048036038101906102389190611df1565b610e7e565b005b610247611087565b60405161025491906120a6565b60405180910390f35b61027760048036038101906102729190611df1565b611154565b604051610286939291906120e3565b60405180910390f35b610297611198565b005b6102a1611306565b005b6102ab6115c9565b6040516102b89190611b57565b60405180910390f35b6102c96115d6565b6040516102d691906121d8565b60405180910390f35b6102e7611722565b005b6102f1611890565b6040516102fe9190611b57565b60405180910390f35b61030f611896565b005b61032b60048036038101906103269190611b1b565b611a03565b6040516103389190611b57565b60405180910390f35b600380600581111561035657610355611b72565b5b600360009054906101000a900460ff16600581111561037857610377611b72565b5b146103b8576040517f08c379a00000000000000000000000000000000000000000000000000000000081526004016103af90612257565b60405180910390fd5b600160003373ffffffffffffffffffffffffffffffffffffffff1673ffffffffffffffffffffffffffffffffffffffff16815260200190815260200160002060000160009054906101000a900460ff16610447576040517f08c379a000000000000000000000000000000000000000000000000000000000815260040161043e906122c3565b60405180910390fd5b600160003373ffffffffffffffffffffffffffffffffffffffff1673ffffffffffffffffffffffffffffffffffffffff16815260200190815260200160002060000160019054906101000a900460ff16156104d7576040517f08c379a00000000000000000000000000000000000000000000000000000000081526004016104ce9061232f565b60405180910390fd5b600680549050821061051e576040517f08c379a00000000000000000000000000000000000000000000000000000000081526004016105159061239b565b60405180910390fd5b60018060003373ffffffffffffffffffffffffffffffffffffffff1673ffffffffffffffffffffffffffffffffffffffff16815260200190815260200160002060000160016101000a81548160ff02191690831515021790555081600160003373ffffffffffffffffffffffffffffffffffffffff1673ffffffffffffffffffffffffffffffffffffffff16815260200190815260200160002060010181905550600682815481106105d3576105d26123bb565b5b906000526020600020906002020160010160008154809291906105f590612419565b91905055507f4d99b957a2bc29a30ebd96a7be8e68fe50a3c701db28a91436490b7d53870ca4338360405161062b929190612461565b60405180910390a15050565b6000600254905090565b600360009054906101000a900460ff1681565b600180600581111561066957610668611b72565b5b600360009054906101000a900460ff16600581111561068b5761068a611b72565b5b146106cb576040517f08c379a00000000000000000000000000000000000000000000000000000000081526004016106c290612257565b60405180910390fd5b60008054906101000a900473ffffffffffffffffffffffffffffffffffffffff1673ffffffffffffffffffffffffffffffffffffffff163373ffffffffffffffffffffffffffffffffffffffff1614806107715750600160003373ffffffffffffffffffffffffffffffffffffffff1673ffffffffffffffffffffffffffffffffffffffff16815260200190815260200160002060000160009054906101000a900460ff165b6107b0576040517f08c379a00000000000000000000000000000000000000000000000000000000081526004016107a7906122c3565b60405180910390fd5b60006006805490509050600660405180604001604052808581526020016000815250908060018154018082558091505060019003906000526020600020906002020160009091909190915060008201518160000190816108109190612696565b506020820151816001015550507f92e393e9b54e2f801d3ea4beb0c5e71a21cc34a5d34b77d0fb8a3aa1650dc18f8160405161084c9190611b57565b60405180910390a1505050565b600160008273ffffffffffffffffffffffffffffffffffffffff1673ffffffffffffffffffffffffffffffffffffffff16815260200190815260200160002060000160009054906101000a900460ff166109b357600060405180606001604052806001151581526020016000151581526020016000815250905080600160008473ffffffffffffffffffffffffffffffffffffffff1673ffffffffffffffffffffffffffffffffffffffff16815260200190815260200160002060008201518160000160006101000a81548160ff02191690831515021790555060208201518160000160016101000a81548160ff021916908315150217905550604082015181600101559050506001600260008282546109739190612768565b925050819055507fb6be2187d059cc2a55fe29e0e503b566e1e0f8c8780096e185429350acffd3dd826040516109a99190611fdc565b60405180910390a1505b50565b60008054906101000a900473ffffffffffffffffffffffffffffffffffffffff1673ffffffffffffffffffffffffffffffffffffffff163373ffffffffffffffffffffffffffffffffffffffff1614610a44576040517f08c379a0000000000000000000000000000000000000000000000000000000008152600401610a3b9061280e565b60405180910390fd5b60016005811115610a5857610a57611b72565b5b600360009054906101000a900460ff166005811115610a7a57610a79611b72565b5b14610aba576040517f08c379a0000000000000000000000000000000000000000000000000000000008152600401610ab190612257565b60405180910390fd5b6006805490508110610b01576040517f08c379a0000000000000000000000000000000000000000000000000000000008152600401610af89061287a565b60405180910390fd5b60008190505b6001600680549050610b19919061289a565b811015610ba5576006600182610b2f9190612768565b81548110610b4057610b3f6123bb565b5b906000526020600020906002020160068281548110610b6257610b616123bb565b5b906000526020600020906002020160008201816000019081610b8491906128e4565b50600182015481600101559050508080610b9d90612419565b915050610b07565b506006805480610bb857610bb76129cc565b5b600190038181906000526020600020906002020160008082016000610bdd9190611a27565b60018201600090555050905550565b60606006805480602002602001604051908101604052809291908181526020016000905b82821015610cde5783829060005260206000209060020201604051806040016040529081600082018054610c43906124b9565b80601f0160208091040260200160405190810160405280929190818152602001828054610c6f906124b9565b8015610cbc5780601f10610c9157610100808354040283529160200191610cbc565b820191906000526020600020905b815481529060010190602001808311610c9f57829003601f168201915b5050505050815260200160018201548152505081526020019060010190610c10565b50505050905090565b60008054906101000a900473ffffffffffffffffffffffffffffffffffffffff1673ffffffffffffffffffffffffffffffffffffffff163373ffffffffffffffffffffffffffffffffffffffff1614610d75576040517f08c379a0000000000000000000000000000000000000000000000000000000008152600401610d6c9061280e565b60405180910390fd5b6001806005811115610d8a57610d89611b72565b5b600360009054906101000a900460ff166005811115610dac57610dab611b72565b5b14610dec576040517f08c379a0000000000000000000000000000000000000000000000000000000008152600401610de390612257565b60405180910390fd5b6002600360006101000a81548160ff02191690836005811115610e1257610e11611b72565b5b02179055507f0a97a4ee45751e2abf3e4fc8946939630b11b371ea8ae39ccdc3056e98f5cc3f60016002604051610e4a9291906129fb565b60405180910390a150565b60008060009054906101000a900473ffffffffffffffffffffffffffffffffffffffff16905090565b60008054906101000a900473ffffffffffffffffffffffffffffffffffffffff1673ffffffffffffffffffffffffffffffffffffffff163373ffffffffffffffffffffffffffffffffffffffff1614610f0c576040517f08c379a0000000000000000000000000000000000000000000000000000000008152600401610f039061280e565b60405180910390fd5b60006005811115610f2057610f1f611b72565b5b600360009054906101000a900460ff166005811115610f4257610f41611b72565b5b14610f82576040517f08c379a0000000000000000000000000000000000000000000000000000000008152600401610f7990612257565b60405180910390fd5b600160008273ffffffffffffffffffffffffffffffffffffffff1673ffffffffffffffffffffffffffffffffffffffff16815260200190815260200160002060000160009054906101000a900460ff16611011576040517f08c379a000000000000000000000000000000000000000000000000000000000815260040161100890612a96565b60405180910390fd5b6000600160008373ffffffffffffffffffffffffffffffffffffffff1673ffffffffffffffffffffffffffffffffffffffff16815260200190815260200160002060000160006101000a81548160ff0219169083151502179055506002600081548092919061107f90612ab6565b919050555050565b606060058081111561109c5761109b611b72565b5b600360009054906101000a900460ff1660058111156110be576110bd611b72565b5b146110fe576040517f08c379a00000000000000000000000000000000000000000000000000000000081526004016110f590612b51565b60405180910390fd5b600580548060200260200160405190810160405280929190818152602001828054801561114a57602002820191906000526020600020905b815481526020019060010190808311611136575b5050505050905090565b60016020528060005260406000206000915090508060000160009054906101000a900460ff16908060000160019054906101000a900460ff16908060010154905083565b60008054906101000a900473ffffffffffffffffffffffffffffffffffffffff1673ffffffffffffffffffffffffffffffffffffffff163373ffffffffffffffffffffffffffffffffffffffff1614611226576040517f08c379a000000000000000000000000000000000000000000000000000000000815260040161121d9061280e565b60405180910390fd5b600380600581111561123b5761123a611b72565b5b600360009054906101000a900460ff16600581111561125d5761125c611b72565b5b1461129d576040517f08c379a000000000000000000000000000000000000000000000000000000000815260040161129490612257565b60405180910390fd5b6004600360006101000a81548160ff021916908360058111156112c3576112c2611b72565b5b02179055507f0a97a4ee45751e2abf3e4fc8946939630b11b371ea8ae39ccdc3056e98f5cc3f600360046040516112fb9291906129fb565b60405180910390a150565b60008054906101000a900473ffffffffffffffffffffffffffffffffffffffff1673ffffffffffffffffffffffffffffffffffffffff163373ffffffffffffffffffffffffffffffffffffffff1614611394576040517f08c379a000000000000000000000000000000000000000000000000000000000815260040161138b9061280e565b60405180910390fd5b60048060058111156113a9576113a8611b72565b5b600360009054906101000a900460ff1660058111156113cb576113ca611b72565b5b1461140b576040517f08c379a000000000000000000000000000000000000000000000000000000000815260040161140290612257565b60405180910390fd5b6005600360006101000a81548160ff0219169083600581111561143157611430611b72565b5b02179055507f0a97a4ee45751e2abf3e4fc8946939630b11b371ea8ae39ccdc3056e98f5cc3f600460056040516114699291906129fb565b60405180910390a1600060045467ffffffffffffffff81111561148f5761148e611c1f565b5b6040519080825280602002602001820160405280156114bd5781602001602082028036833780820191505090505b50905060005b6004548110156115ad5760008060005b60068054905081101561154c5782600682815481106114f5576114f46123bb565b5b90600052602060002090600202016001015411156115395760068181548110611521576115206123bb565b5b90600052602060002090600202016001015492508091505b808061154490612419565b9150506114d3565b5080848481518110611561576115606123bb565b5b602002602001018181525050600060068281548110611583576115826123bb565b5b906000526020600020906002020160010181905550505080806115a590612419565b9150506114c3565b5080600590805190602001906115c4929190611a67565b505050565b6000600680549050905090565b6060600060025467ffffffffffffffff8111156115f6576115f5611c1f565b5b6040519080825280602002602001820160405280156116245781602001602082028036833780820191505090505b5090506000805b8251811015611719576000838281518110611649576116486123bb565b5b60200260200101519050600160008273ffffffffffffffffffffffffffffffffffffffff1673ffffffffffffffffffffffffffffffffffffffff16815260200190815260200160002060000160009054906101000a900460ff161561170557808484815181106116bc576116bb6123bb565b5b602002602001019073ffffffffffffffffffffffffffffffffffffffff16908173ffffffffffffffffffffffffffffffffffffffff1681525050828061170190612419565b9350505b50808061171190612419565b91505061162b565b50819250505090565b60008054906101000a900473ffffffffffffffffffffffffffffffffffffffff1673ffffffffffffffffffffffffffffffffffffffff163373ffffffffffffffffffffffffffffffffffffffff16146117b0576040517f08c379a00000000000000000000000000000000000000000000000000000000081526004016117a79061280e565b60405180910390fd5b60008060058111156117c5576117c4611b72565b5b600360009054906101000a900460ff1660058111156117e7576117e6611b72565b5b14611827576040517f08c379a000000000000000000000000000000000000000000000000000000000815260040161181e90612257565b60405180910390fd5b6001600360006101000a81548160ff0219169083600581111561184d5761184c611b72565b5b02179055507f0a97a4ee45751e2abf3e4fc8946939630b11b371ea8ae39ccdc3056e98f5cc3f600060016040516118859291906129fb565b60405180910390a150565b60045481565b60008054906101000a900473ffffffffffffffffffffffffffffffffffffffff1673ffffffffffffffffffffffffffffffffffffffff163373ffffffffffffffffffffffffffffffffffffffff1614611924576040517f08c379a000000000000000000000000000000000000000000000000000000000815260040161191b9061280e565b60405180910390fd5b600280600581111561193957611938611b72565b5b600360009054906101000a900460ff16600581111561195b5761195a611b72565b5b1461199b576040517f08c379a000000000000000000000000000000000000000000000000000000000815260040161199290612257565b60405180910390fd5b60038060006101000a81548160ff021916908360058111156119c0576119bf611b72565b5b02179055507f0a97a4ee45751e2abf3e4fc8946939630b11b371ea8ae39ccdc3056e98f5cc3f600260036040516119f89291906129fb565b60405180910390a150565b60058181548110611a1357600080fd5b906000526020600020016000915090505481565b508054611a33906124b9565b6000825580601f10611a455750611a64565b601f016020900490600052602060002090810190611a639190611ab4565b5b50565b828054828255906000526020600020908101928215611aa3579160200282015b82811115611aa2578251825591602001919060010190611a87565b5b509050611ab09190611ab4565b5090565b5b80821115611acd576000816000905550600101611ab5565b5090565b6000604051905090565b600080fd5b600080fd5b6000819050919050565b611af881611ae5565b8114611b0357600080fd5b50565b600081359050611b1581611aef565b92915050565b600060208284031215611b3157611b30611adb565b5b6000611b3f84828501611b06565b91505092915050565b611b5181611ae5565b82525050565b6000602082019050611b6c6000830184611b48565b92915050565b7f4e487b7100000000000000000000000000000000000000000000000000000000600052602160045260246000fd5b60068110611bb257611bb1611b72565b5b50565b6000819050611bc382611ba1565b919050565b6000611bd382611bb5565b9050919050565b611be381611bc8565b82525050565b6000602082019050611bfe6000830184611bda565b92915050565b600080fd5b600080fd5b6000601f19601f8301169050919050565b7f4e487b7100000000000000000000000000000000000000000000000000000000600052604160045260246000fd5b611c5782611c0e565b810181811067ffffffffffffffff82111715611c7657611c75611c1f565b5b80604052505050565b6000611c89611ad1565b9050611c958282611c4e565b919050565b600067ffffffffffffffff821115611cb557611cb4611c1f565b5b611cbe82611c0e565b9050602081019050919050565b82818337600083830152505050565b6000611ced611ce884611c9a565b611c7f565b905082815260208101848484011115611d0957611d08611c09565b5b611d14848285611ccb565b509392505050565b600082601f830112611d3157611d30611c04565b5b8135611d41848260208601611cda565b91505092915050565b600060208284031215611d6057611d5f611adb565b5b600082013567ffffffffffffffff811115611d7e57611d7d611ae0565b5b611d8a84828501611d1c565b91505092915050565b600073ffffffffffffffffffffffffffffffffffffffff82169050919050565b6000611dbe82611d93565b9050919050565b611dce81611db3565b8114611dd957600080fd5b50565b600081359050611deb81611dc5565b92915050565b600060208284031215611e0757611e06611adb565b5b6000611e1584828501611ddc565b91505092915050565b600081519050919050565b600082825260208201905092915050565b6000819050602082019050919050565b600081519050919050565b600082825260208201905092915050565b60005b83811015611e84578082015181840152602081019050611e69565b60008484015250505050565b6000611e9b82611e4a565b611ea58185611e55565b9350611eb5818560208601611e66565b611ebe81611c0e565b840191505092915050565b611ed281611ae5565b82525050565b60006040830160008301518482036000860152611ef58282611e90565b9150506020830151611f0a6020860182611ec9565b508091505092915050565b6000611f218383611ed8565b905092915050565b6000602082019050919050565b6000611f4182611e1e565b611f4b8185611e29565b935083602082028501611f5d85611e3a565b8060005b85811015611f995784840389528151611f7a8582611f15565b9450611f8583611f29565b925060208a01995050600181019050611f61565b50829750879550505050505092915050565b60006020820190508181036000830152611fc58184611f36565b905092915050565b611fd681611db3565b82525050565b6000602082019050611ff16000830184611fcd565b92915050565b600081519050919050565b600082825260208201905092915050565b6000819050602082019050919050565b600061202f8383611ec9565b60208301905092915050565b6000602082019050919050565b600061205382611ff7565b61205d8185612002565b935061206883612013565b8060005b838110156120995781516120808882612023565b975061208b8361203b565b92505060018101905061206c565b5085935050505092915050565b600060208201905081810360008301526120c08184612048565b905092915050565b60008115159050919050565b6120dd816120c8565b82525050565b60006060820190506120f860008301866120d4565b61210560208301856120d4565b6121126040830184611b48565b949350505050565b600081519050919050565b600082825260208201905092915050565b6000819050602082019050919050565b61214f81611db3565b82525050565b60006121618383612146565b60208301905092915050565b6000602082019050919050565b60006121858261211a565b61218f8185612125565b935061219a83612136565b8060005b838110156121cb5781516121b28882612155565b97506121bd8361216d565b92505060018101905061219e565b5085935050505092915050565b600060208201905081810360008301526121f2818461217a565b905092915050565b600082825260208201905092915050565b7f4c65207374617475742065737420696e76616c69646500000000000000000000600082015250565b60006122416016836121fa565b915061224c8261220b565b602082019050919050565b6000602082019050818103600083015261227081612234565b9050919050565b7f566f7573206e27c3aa7465732070617320656e72656769737472c3a900000000600082015250565b60006122ad601c836121fa565b91506122b882612277565b602082019050919050565b600060208201905081810360008301526122dc816122a0565b9050919050565b7f566f7573206176657a2064c3a96ac3a020766f74c3a900000000000000000000600082015250565b60006123196016836121fa565b9150612324826122e3565b602082019050919050565b600060208201905081810360008301526123488161230c565b9050919050565b7f494420696e76616c696465000000000000000000000000000000000000000000600082015250565b6000612385600b836121fa565b91506123908261234f565b602082019050919050565b600060208201905081810360008301526123b481612378565b9050919050565b7f4e487b7100000000000000000000000000000000000000000000000000000000600052603260045260246000fd5b7f4e487b7100000000000000000000000000000000000000000000000000000000600052601160045260246000fd5b600061242482611ae5565b91507fffffffffffffffffffffffffffffffffffffffffffffffffffffffffffffffff8203612456576124556123ea565b5b600182019050919050565b60006040820190506124766000830185611fcd565b6124836020830184611b48565b9392505050565b7f4e487b7100000000000000000000000000000000000000000000000000000000600052602260045260246000fd5b600060028204905060018216806124d157607f821691505b6020821081036124e4576124e361248a565b5b50919050565b60008190508160005260206000209050919050565b60006020601f8301049050919050565b600082821b905092915050565b60006008830261254c7fffffffffffffffffffffffffffffffffffffffffffffffffffffffffffffffff8261250f565b612556868361250f565b95508019841693508086168417925050509392505050565b6000819050919050565b600061259361258e61258984611ae5565b61256e565b611ae5565b9050919050565b6000819050919050565b6125ad83612578565b6125c16125b98261259a565b84845461251c565b825550505050565b600090565b6125d66125c9565b6125e18184846125a4565b505050565b5b81811015612605576125fa6000826125ce565b6001810190506125e7565b5050565b601f82111561264a5761261b816124ea565b612624846124ff565b81016020851015612633578190505b61264761263f856124ff565b8301826125e6565b50505b505050565b600082821c905092915050565b600061266d6000198460080261264f565b1980831691505092915050565b6000612686838361265c565b9150826002028217905092915050565b61269f82611e4a565b67ffffffffffffffff8111156126b8576126b7611c1f565b5b6126c282546124b9565b6126cd828285612609565b600060209050601f83116001811461270057600084156126ee578287015190505b6126f8858261267a565b865550612760565b601f19841661270e866124ea565b60005b8281101561273657848901518255600182019150602085019450602081019050612711565b86831015612753578489015161274f601f89168261265c565b8355505b6001600288020188555050505b505050505050565b600061277382611ae5565b915061277e83611ae5565b9250828201905080821115612796576127956123ea565b5b92915050565b7f566f7573206e27c3aa74657320706173206c2761646d696e697374726174657560008201527f7200000000000000000000000000000000000000000000000000000000000000602082015250565b60006127f86021836121fa565b91506128038261279c565b604082019050919050565b60006020820190508181036000830152612827816127eb565b9050919050565b7f4c2749442065737420696e76616c696465000000000000000000000000000000600082015250565b60006128646011836121fa565b915061286f8261282e565b602082019050919050565b6000602082019050818103600083015261289381612857565b9050919050565b60006128a582611ae5565b91506128b083611ae5565b92508282039050818111156128c8576128c76123ea565b5b92915050565b6000815490506128dd816124b9565b9050919050565b8181036128f25750506129ca565b6128fb826128ce565b67ffffffffffffffff81111561291457612913611c1f565b5b61291e82546124b9565b612929828285612609565b6000601f8311600181146129585760008415612946578287015490505b612950858261267a565b8655506129c3565b601f198416612966876124ea565b9650612971866124ea565b60005b8281101561299957848901548255600182019150600185019450602081019050612974565b868310156129b657848901546129b2601f89168261265c565b8355505b6001600288020188555050505b5050505050505b565b7f4e487b7100000000000000000000000000000000000000000000000000000000600052603160045260246000fd5b6000604082019050612a106000830185611bda565b612a1d6020830184611bda565b9392505050565b7f4c27c3a96c656374657572206e276573742070617320656e72656769737472c360008201527fa900000000000000000000000000000000000000000000000000000000000000602082015250565b6000612a806021836121fa565b9150612a8b82612a24565b604082019050919050565b60006020820190508181036000830152612aaf81612a73565b9050919050565b6000612ac182611ae5565b915060008203612ad457612ad36123ea565b5b600182039050919050565b7f4c657320766f746573206e276f6e742070617320c3a974c3a920636f6d7074c360008201527fa973000000000000000000000000000000000000000000000000000000000000602082015250565b6000612b3b6022836121fa565b9150612b4682612adf565b604082019050919050565b60006020820190508181036000830152612b6a81612b2e565b905091905056fea264697066735822122097a94588689ac9aa1af666ea250491d511e9882e8e80d0e3808d4d688fad2c2164736f6c63430008120033",
  "immutableReferences": {},
  "source": "pragma solidity ^0.8.0 <0.8.19;\r\n\r\ncontract Voting {\r\n    address private admin;\r\n    mapping(address => Voter) public voters;\r\n    uint private voterCount;\r\n    WorkflowStatus public status;\r\n    //Il y a possibilit d'avoir un ou plusieurs gagnants selon l'instance\r\n    uint public numberOfWinningProposals;\r\n    uint[] public winningProposalIds;\r\n    Proposal[] private proposals;\r\n\r\n    struct Voter {\r\n        bool isRegistered;\r\n        bool hasVoted;\r\n        uint votedProposalId;\r\n    }\r\n\r\n    struct Proposal {\r\n        string description;\r\n        uint voteCount;\r\n    }\r\n\r\n    enum WorkflowStatus {\r\n        RegisteringVoters,\r\n        ProposalsRegistrationStarted,\r\n        ProposalsRegistrationEnded,\r\n        VotingSessionStarted,\r\n        VotingSessionEnded,\r\n        VotesTallied\r\n    }\r\n\r\n    constructor(uint _numberOfWinningProposals) {\r\n        numberOfWinningProposals = _numberOfWinningProposals;\r\n        status = WorkflowStatus.RegisteringVoters;\r\n        admin = msg.sender;\r\n        voterCount = 0;\r\n    }\r\n\r\n    event VoterRegistered(address voterAddress);\r\n\r\n    event WorkflowStatusChange(WorkflowStatus previousStatus, WorkflowStatus newStatus);\r\n\r\n    event ProposalRegistered(uint proposalId);\r\n\r\n    event Voted(address voter, uint proposalId);\r\n\r\n    modifier checkStage(WorkflowStatus _status) {\r\n        require(status == _status, \"Le statut est invalide\");\r\n        _;\r\n    }\r\n\r\n    modifier checkAdmin() {\r\n        require(msg.sender == admin, unicode\"Vous n'tes pas l'administrateur\");\r\n        _;\r\n    }\r\n\r\n    function registerVoter(address _voterAddress) public{\r\n        if(!voters[_voterAddress].isRegistered){\r\n            Voter memory newVoter = Voter({\r\n                isRegistered: true,\r\n                hasVoted: false,\r\n                votedProposalId: 0\r\n            });\r\n            voters[_voterAddress] = newVoter;\r\n            voterCount+=1;\r\n            emit VoterRegistered(_voterAddress);\r\n        }\r\n    }\r\n\r\n    function getVoterCount() public view returns (uint) {\r\n        return voterCount;\r\n    }\r\n\r\n    function getVoters() public view returns (address[] memory){\r\n        address[] memory registeredVotersArray = new address[](voterCount);\r\n\r\n        uint currentIndex = 0;\r\n        for (uint i = 0; i < registeredVotersArray.length; i++) {\r\n            address voterAddress = registeredVotersArray[i];\r\n            if (voters[voterAddress].isRegistered) {\r\n                registeredVotersArray[currentIndex] = voterAddress;\r\n                currentIndex++;\r\n            }\r\n        }\r\n\r\n        return registeredVotersArray;\r\n    }\r\n\r\n    function getProposalCount() public view returns (uint) {\r\n        return proposals.length;\r\n    }\r\n\r\n    function getProposals() public view returns (Proposal[] memory){\r\n        return proposals;\r\n    }\r\n\r\n    function getAdmin() public view returns (address){\r\n        return admin;\r\n    }\r\n\r\n\r\n    function startProposalsRegistration() public checkAdmin checkStage(WorkflowStatus.RegisteringVoters) {\r\n        status = WorkflowStatus.ProposalsRegistrationStarted;\r\n        emit WorkflowStatusChange(WorkflowStatus.RegisteringVoters, WorkflowStatus.ProposalsRegistrationStarted);\r\n    }\r\n\r\n    function registerProposal(string memory _description) public checkStage(WorkflowStatus.ProposalsRegistrationStarted) {\r\n        require(msg.sender == admin || voters[msg.sender].isRegistered, unicode\"Vous n'tes pas enregistr\");\r\n\r\n        uint proposalId = proposals.length;\r\n        proposals.push(Proposal(_description, 0));\r\n        emit ProposalRegistered(proposalId);\r\n    }\r\n\r\n    function removeVoter(address _address) public checkAdmin {\r\n        require(status == WorkflowStatus.RegisteringVoters, \"Le statut est invalide\");\r\n        require(voters[_address].isRegistered, unicode\"L'lecteur n'est pas enregistr\");\r\n\r\n        voters[_address].isRegistered = false;\r\n        voterCount--;\r\n    }\r\n\r\n    function removeProposal(uint _proposalId) public checkAdmin {\r\n        require(status == WorkflowStatus.ProposalsRegistrationStarted, \"Le statut est invalide\");\r\n        require(_proposalId < proposals.length, \"L'ID est invalide\");\r\n\r\n        for (uint i = _proposalId; i < proposals.length - 1; i++) {\r\n            proposals[i] = proposals[i + 1];\r\n        }\r\n        proposals.pop();\r\n    }\r\n\r\n    function endProposalsRegistration() public checkAdmin checkStage(WorkflowStatus.ProposalsRegistrationStarted) {\r\n        status = WorkflowStatus.ProposalsRegistrationEnded;\r\n        emit WorkflowStatusChange(WorkflowStatus.ProposalsRegistrationStarted, WorkflowStatus.ProposalsRegistrationEnded);\r\n    }\r\n\r\n    function startVotingSession() public checkAdmin checkStage(WorkflowStatus.ProposalsRegistrationEnded) {\r\n        status = WorkflowStatus.VotingSessionStarted;\r\n        emit WorkflowStatusChange(WorkflowStatus.ProposalsRegistrationEnded, WorkflowStatus.VotingSessionStarted);\r\n    }\r\n\r\n    function vote(uint _proposalId) public checkStage(WorkflowStatus.VotingSessionStarted) {\r\n        require(voters[msg.sender].isRegistered, unicode\"Vous n'tes pas enregistr\");\r\n        require(!voters[msg.sender].hasVoted, unicode\"Vous avez dj vot\");\r\n        require(_proposalId < proposals.length, \"ID invalide\");\r\n\r\n        voters[msg.sender].hasVoted = true;\r\n        voters[msg.sender].votedProposalId = _proposalId;\r\n        proposals[_proposalId].voteCount++;\r\n        emit Voted(msg.sender, _proposalId);\r\n    }\r\n\r\n    function endVotingSession() public checkAdmin checkStage(WorkflowStatus.VotingSessionStarted) {\r\n        status = WorkflowStatus.VotingSessionEnded;\r\n        emit WorkflowStatusChange(WorkflowStatus.VotingSessionStarted, WorkflowStatus.VotingSessionEnded);\r\n    }\r\n\r\n    function countVotes() public checkAdmin checkStage(WorkflowStatus.VotingSessionEnded) {\r\n        status = WorkflowStatus.VotesTallied;\r\n        emit WorkflowStatusChange(WorkflowStatus.VotingSessionEnded, WorkflowStatus.VotesTallied);\r\n\r\n        uint[] memory topProposalIds = new uint[](numberOfWinningProposals);\r\n\r\n        for (uint j = 0; j < numberOfWinningProposals; j++) {\r\n            uint maxVoteCount = 0;\r\n            uint winningProposalId = 0;\r\n            for (uint i = 0; i < proposals.length; i++) {\r\n                if (proposals[i].voteCount > maxVoteCount) {\r\n                    maxVoteCount = proposals[i].voteCount;\r\n                    winningProposalId = i;\r\n                }\r\n            }\r\n            topProposalIds[j] = winningProposalId;\r\n            //pour viter de reslectionner cette proposition, on mets son compte  0\r\n            proposals[winningProposalId].voteCount = 0;\r\n        }\r\n        winningProposalIds = topProposalIds;\r\n    }\r\n\r\n    function getWinner() public view returns (uint[] memory){\r\n        require(status == WorkflowStatus.VotesTallied, unicode\"Les votes n'ont pas t compts\");\r\n        return winningProposalIds;\r\n    }\r\n}",
  "sourcePath": "C:\\Users\\LeaBe\\smartcontracts\\economie_durable\\dapp\\contracts\\Voting.sol",
  "compiler": {
    "name": "solc",
    "version": "0.8.18+commit.87f61d96.Emscripten.clang"
  },
  "schemaVersion": "3.4.16",
  "updatedAt": "2023-10-28T14:57:07.196Z",
  "networkType": "ethereum",
  "devdoc": {
    "kind": "dev",
    "methods": {},
    "version": 1
  },
  "userdoc": {
    "kind": "user",
    "methods": {},
    "version": 1
  }
}