{
  "contractName": "Voting",
  "abi": [
    {
      "inputs": [
        {
          "internalType": "uint256",
          "name": "_numberOfWinningProposals",
          "type": "uint256"
        }
      ],
      "stateMutability": "nonpayable",
      "type": "constructor"
    },
    {
      "anonymous": false,
      "inputs": [
        {
          "indexed": false,
          "internalType": "uint256",
          "name": "proposalId",
          "type": "uint256"
        }
      ],
      "name": "ProposalRegistered",
      "type": "event"
    },
    {
      "anonymous": false,
      "inputs": [
        {
          "indexed": false,
          "internalType": "address",
          "name": "voter",
          "type": "address"
        },
        {
          "indexed": false,
          "internalType": "uint256",
          "name": "proposalId",
          "type": "uint256"
        }
      ],
      "name": "Voted",
      "type": "event"
    },
    {
      "anonymous": false,
      "inputs": [
        {
          "indexed": false,
          "internalType": "address",
          "name": "voterAddress",
          "type": "address"
        }
      ],
      "name": "VoterRegistered",
      "type": "event"
    },
    {
      "anonymous": false,
      "inputs": [
        {
          "indexed": false,
          "internalType": "enum Voting.WorkflowStatus",
          "name": "previousStatus",
          "type": "uint8"
        },
        {
          "indexed": false,
          "internalType": "enum Voting.WorkflowStatus",
          "name": "newStatus",
          "type": "uint8"
        }
      ],
      "name": "WorkflowStatusChange",
      "type": "event"
    },
    {
      "inputs": [],
      "name": "numberOfWinningProposals",
      "outputs": [
        {
          "internalType": "uint256",
          "name": "",
          "type": "uint256"
        }
      ],
      "stateMutability": "view",
      "type": "function",
      "constant": true
    },
    {
      "inputs": [],
      "name": "status",
      "outputs": [
        {
          "internalType": "enum Voting.WorkflowStatus",
          "name": "",
          "type": "uint8"
        }
      ],
      "stateMutability": "view",
      "type": "function",
      "constant": true
    },
    {
      "inputs": [
        {
          "internalType": "uint256",
          "name": "",
          "type": "uint256"
        }
      ],
      "name": "winningProposalIds",
      "outputs": [
        {
          "internalType": "uint256",
          "name": "",
          "type": "uint256"
        }
      ],
      "stateMutability": "view",
      "type": "function",
      "constant": true
    },
    {
      "inputs": [],
      "name": "getVoterCount",
      "outputs": [
        {
          "internalType": "uint256",
          "name": "",
          "type": "uint256"
        }
      ],
      "stateMutability": "view",
      "type": "function",
      "constant": true
    },
    {
      "inputs": [],
      "name": "getVoters",
      "outputs": [
        {
          "internalType": "address[]",
          "name": "",
          "type": "address[]"
        }
      ],
      "stateMutability": "view",
      "type": "function",
      "constant": true
    },
    {
      "inputs": [],
      "name": "getProposalCount",
      "outputs": [
        {
          "internalType": "uint256",
          "name": "",
          "type": "uint256"
        }
      ],
      "stateMutability": "view",
      "type": "function",
      "constant": true
    },
    {
      "inputs": [],
      "name": "getProposals",
      "outputs": [
        {
          "components": [
            {
              "internalType": "string",
              "name": "description",
              "type": "string"
            },
            {
              "internalType": "uint256",
              "name": "voteCount",
              "type": "uint256"
            }
          ],
          "internalType": "struct Voting.Proposal[]",
          "name": "",
          "type": "tuple[]"
        }
      ],
      "stateMutability": "view",
      "type": "function",
      "constant": true
    },
    {
      "inputs": [],
      "name": "getAdmin",
      "outputs": [
        {
          "internalType": "address",
          "name": "",
          "type": "address"
        }
      ],
      "stateMutability": "view",
      "type": "function",
      "constant": true
    },
    {
      "inputs": [
        {
          "internalType": "address",
          "name": "_voterAddress",
          "type": "address"
        }
      ],
      "name": "registerVoter",
      "outputs": [],
      "stateMutability": "nonpayable",
      "type": "function"
    },
    {
      "inputs": [],
      "name": "startProposalsRegistration",
      "outputs": [],
      "stateMutability": "nonpayable",
      "type": "function"
    },
    {
      "inputs": [
        {
          "internalType": "string",
          "name": "_description",
          "type": "string"
        }
      ],
      "name": "registerProposal",
      "outputs": [],
      "stateMutability": "nonpayable",
      "type": "function"
    },
    {
      "inputs": [
        {
          "internalType": "address",
          "name": "_address",
          "type": "address"
        }
      ],
      "name": "removeVoter",
      "outputs": [],
      "stateMutability": "nonpayable",
      "type": "function"
    },
    {
      "inputs": [
        {
          "internalType": "uint256",
          "name": "_proposalId",
          "type": "uint256"
        }
      ],
      "name": "removeProposal",
      "outputs": [],
      "stateMutability": "nonpayable",
      "type": "function"
    },
    {
      "inputs": [],
      "name": "endProposalsRegistration",
      "outputs": [],
      "stateMutability": "nonpayable",
      "type": "function"
    },
    {
      "inputs": [],
      "name": "startVotingSession",
      "outputs": [],
      "stateMutability": "nonpayable",
      "type": "function"
    },
    {
      "inputs": [
        {
          "internalType": "uint256",
          "name": "_proposalId",
          "type": "uint256"
        }
      ],
      "name": "vote",
      "outputs": [],
      "stateMutability": "nonpayable",
      "type": "function"
    },
    {
      "inputs": [],
      "name": "endVotingSession",
      "outputs": [],
      "stateMutability": "nonpayable",
      "type": "function"
    },
    {
      "inputs": [],
      "name": "countVotes",
      "outputs": [],
      "stateMutability": "nonpayable",
      "type": "function"
    },
    {
      "inputs": [],
      "name": "getWinner",
      "outputs": [
        {
          "internalType": "uint256[]",
          "name": "",
          "type": "uint256[]"
        }
      ],
      "stateMutability": "view",
      "type": "function",
      "constant": true
    }
  ],
  "bytecode": "0x608060405260016004553480156200001657600080fd5b5060405162002cee38038062002cee83398181016040528101906200003c919062000100565b806004819055506000600360006101000a81548160ff021916908360058111156200006c576200006b62000132565b5b0217905550336000806101000a81548173ffffffffffffffffffffffffffffffffffffffff021916908373ffffffffffffffffffffffffffffffffffffffff16021790555060006002819055505062000161565b600080fd5b6000819050919050565b620000da81620000c5565b8114620000e657600080fd5b50565b600081519050620000fa81620000cf565b92915050565b600060208284031215620001195762000118620000c0565b5b60006200012984828501620000e9565b91505092915050565b7f4e487b7100000000000000000000000000000000000000000000000000000000600052602160045260246000fd5b612b7d80620001716000396000f3fe608060405234801561001057600080fd5b50600436106101215760003560e01c806386c1ff68116100ad578063cdd7225311610071578063cdd7225314610284578063e09b8c79146102a2578063e154cfba146102ac578063ee74c678146102ca578063fe4159bc146102d457610121565b806386c1ff68146102185780638e7ea5b214610234578063a7bfab1614610252578063b647990a1461025c578063c08cc02d1461026657610121565b806338db6dd3116100f457806338db6dd31461019a5780634ce4e6c7146101b657806362564c48146101d25780636c297445146101f05780636e9960c3146101fa57610121565b80630121b93f1461012657806311174a2914610142578063200d2ed2146101605780632f95355b1461017e575b600080fd5b610140600480360381019061013b9190611b43565b610304565b005b61014a6105fa565b6040516101579190611b7f565b60405180910390f35b610168610604565b6040516101759190611c11565b60405180910390f35b61019860048036038101906101939190611d72565b610617565b005b6101b460048036038101906101af9190611e19565b61081c565b005b6101d060048036038101906101cb9190611b43565b610a22565b005b6101da610c58565b6040516101e79190611fd3565b60405180910390f35b6101f8610d53565b005b610202610ec1565b60405161020f9190612004565b60405180910390f35b610232600480360381019061022d9190611e19565b610eea565b005b61023c6110f3565b60405161024991906120ce565b60405180910390f35b61025a6111c0565b005b61026461132e565b005b61026e6115f1565b60405161027b9190611b7f565b60405180910390f35b61028c6115fe565b60405161029991906121ae565b60405180910390f35b6102aa61174a565b005b6102b46118b8565b6040516102c19190611b7f565b60405180910390f35b6102d26118be565b005b6102ee60048036038101906102e99190611b43565b611a2b565b6040516102fb9190611b7f565b60405180910390f35b600380600581111561031957610318611b9a565b5b600360009054906101000a900460ff16600581111561033b5761033a611b9a565b5b1461037b576040517f08c379a00000000000000000000000000000000000000000000000000000000081526004016103729061222d565b60405180910390fd5b600160003373ffffffffffffffffffffffffffffffffffffffff1673ffffffffffffffffffffffffffffffffffffffff16815260200190815260200160002060000160009054906101000a900460ff1661040a576040517f08c379a000000000000000000000000000000000000000000000000000000000815260040161040190612299565b60405180910390fd5b600160003373ffffffffffffffffffffffffffffffffffffffff1673ffffffffffffffffffffffffffffffffffffffff16815260200190815260200160002060000160019054906101000a900460ff161561049a576040517f08c379a000000000000000000000000000000000000000000000000000000000815260040161049190612305565b60405180910390fd5b60068054905082106104e1576040517f08c379a00000000000000000000000000000000000000000000000000000000081526004016104d890612371565b60405180910390fd5b60018060003373ffffffffffffffffffffffffffffffffffffffff1673ffffffffffffffffffffffffffffffffffffffff16815260200190815260200160002060000160016101000a81548160ff02191690831515021790555081600160003373ffffffffffffffffffffffffffffffffffffffff1673ffffffffffffffffffffffffffffffffffffffff168152602001908152602001600020600101819055506006828154811061059657610595612391565b5b906000526020600020906002020160010160008154809291906105b8906123ef565b91905055507f4d99b957a2bc29a30ebd96a7be8e68fe50a3c701db28a91436490b7d53870ca433836040516105ee929190612437565b60405180910390a15050565b6000600254905090565b600360009054906101000a900460ff1681565b600180600581111561062c5761062b611b9a565b5b600360009054906101000a900460ff16600581111561064e5761064d611b9a565b5b1461068e576040517f08c379a00000000000000000000000000000000000000000000000000000000081526004016106859061222d565b60405180910390fd5b60008054906101000a900473ffffffffffffffffffffffffffffffffffffffff1673ffffffffffffffffffffffffffffffffffffffff163373ffffffffffffffffffffffffffffffffffffffff1614806107345750600160003373ffffffffffffffffffffffffffffffffffffffff1673ffffffffffffffffffffffffffffffffffffffff16815260200190815260200160002060000160009054906101000a900460ff165b610773576040517f08c379a000000000000000000000000000000000000000000000000000000000815260040161076a90612299565b60405180910390fd5b60006006805490509050600660405180604001604052808581526020016000815250908060018154018082558091505060019003906000526020600020906002020160009091909190915060008201518160000190816107d3919061266c565b506020820151816001015550507f92e393e9b54e2f801d3ea4beb0c5e71a21cc34a5d34b77d0fb8a3aa1650dc18f8160405161080f9190611b7f565b60405180910390a1505050565b60008054906101000a900473ffffffffffffffffffffffffffffffffffffffff1673ffffffffffffffffffffffffffffffffffffffff163373ffffffffffffffffffffffffffffffffffffffff16146108aa576040517f08c379a00000000000000000000000000000000000000000000000000000000081526004016108a1906127b0565b60405180910390fd5b60008060058111156108bf576108be611b9a565b5b600360009054906101000a900460ff1660058111156108e1576108e0611b9a565b5b14610921576040517f08c379a00000000000000000000000000000000000000000000000000000000081526004016109189061222d565b60405180910390fd5b60405180606001604052806001151581526020016000151581526020016000815250600160008473ffffffffffffffffffffffffffffffffffffffff1673ffffffffffffffffffffffffffffffffffffffff16815260200190815260200160002060008201518160000160006101000a81548160ff02191690831515021790555060208201518160000160016101000a81548160ff02191690831515021790555060408201518160010155905050600260008154809291906109e2906123ef565b91905055507fb6be2187d059cc2a55fe29e0e503b566e1e0f8c8780096e185429350acffd3dd82604051610a169190612004565b60405180910390a15050565b60008054906101000a900473ffffffffffffffffffffffffffffffffffffffff1673ffffffffffffffffffffffffffffffffffffffff163373ffffffffffffffffffffffffffffffffffffffff1614610ab0576040517f08c379a0000000000000000000000000000000000000000000000000000000008152600401610aa7906127b0565b60405180910390fd5b60016005811115610ac457610ac3611b9a565b5b600360009054906101000a900460ff166005811115610ae657610ae5611b9a565b5b14610b26576040517f08c379a0000000000000000000000000000000000000000000000000000000008152600401610b1d9061222d565b60405180910390fd5b6006805490508110610b6d576040517f08c379a0000000000000000000000000000000000000000000000000000000008152600401610b649061281c565b60405180910390fd5b60008190505b6001600680549050610b85919061283c565b811015610c11576006600182610b9b9190612870565b81548110610bac57610bab612391565b5b906000526020600020906002020160068281548110610bce57610bcd612391565b5b906000526020600020906002020160008201816000019081610bf091906128ba565b50600182015481600101559050508080610c09906123ef565b915050610b73565b506006805480610c2457610c236129a2565b5b600190038181906000526020600020906002020160008082016000610c499190611a4f565b60018201600090555050905550565b60606006805480602002602001604051908101604052809291908181526020016000905b82821015610d4a5783829060005260206000209060020201604051806040016040529081600082018054610caf9061248f565b80601f0160208091040260200160405190810160405280929190818152602001828054610cdb9061248f565b8015610d285780601f10610cfd57610100808354040283529160200191610d28565b820191906000526020600020905b815481529060010190602001808311610d0b57829003601f168201915b5050505050815260200160018201548152505081526020019060010190610c7c565b50505050905090565b60008054906101000a900473ffffffffffffffffffffffffffffffffffffffff1673ffffffffffffffffffffffffffffffffffffffff163373ffffffffffffffffffffffffffffffffffffffff1614610de1576040517f08c379a0000000000000000000000000000000000000000000000000000000008152600401610dd8906127b0565b60405180910390fd5b6001806005811115610df657610df5611b9a565b5b600360009054906101000a900460ff166005811115610e1857610e17611b9a565b5b14610e58576040517f08c379a0000000000000000000000000000000000000000000000000000000008152600401610e4f9061222d565b60405180910390fd5b6002600360006101000a81548160ff02191690836005811115610e7e57610e7d611b9a565b5b02179055507f0a97a4ee45751e2abf3e4fc8946939630b11b371ea8ae39ccdc3056e98f5cc3f60016002604051610eb69291906129d1565b60405180910390a150565b60008060009054906101000a900473ffffffffffffffffffffffffffffffffffffffff16905090565b60008054906101000a900473ffffffffffffffffffffffffffffffffffffffff1673ffffffffffffffffffffffffffffffffffffffff163373ffffffffffffffffffffffffffffffffffffffff1614610f78576040517f08c379a0000000000000000000000000000000000000000000000000000000008152600401610f6f906127b0565b60405180910390fd5b60006005811115610f8c57610f8b611b9a565b5b600360009054906101000a900460ff166005811115610fae57610fad611b9a565b5b14610fee576040517f08c379a0000000000000000000000000000000000000000000000000000000008152600401610fe59061222d565b60405180910390fd5b600160008273ffffffffffffffffffffffffffffffffffffffff1673ffffffffffffffffffffffffffffffffffffffff16815260200190815260200160002060000160009054906101000a900460ff1661107d576040517f08c379a000000000000000000000000000000000000000000000000000000000815260040161107490612a6c565b60405180910390fd5b6000600160008373ffffffffffffffffffffffffffffffffffffffff1673ffffffffffffffffffffffffffffffffffffffff16815260200190815260200160002060000160006101000a81548160ff021916908315150217905550600260008154809291906110eb90612a8c565b919050555050565b606060058081111561110857611107611b9a565b5b600360009054906101000a900460ff16600581111561112a57611129611b9a565b5b1461116a576040517f08c379a000000000000000000000000000000000000000000000000000000000815260040161116190612b27565b60405180910390fd5b60058054806020026020016040519081016040528092919081815260200182805480156111b657602002820191906000526020600020905b8154815260200190600101908083116111a2575b5050505050905090565b60008054906101000a900473ffffffffffffffffffffffffffffffffffffffff1673ffffffffffffffffffffffffffffffffffffffff163373ffffffffffffffffffffffffffffffffffffffff161461124e576040517f08c379a0000000000000000000000000000000000000000000000000000000008152600401611245906127b0565b60405180910390fd5b600380600581111561126357611262611b9a565b5b600360009054906101000a900460ff16600581111561128557611284611b9a565b5b146112c5576040517f08c379a00000000000000000000000000000000000000000000000000000000081526004016112bc9061222d565b60405180910390fd5b6004600360006101000a81548160ff021916908360058111156112eb576112ea611b9a565b5b02179055507f0a97a4ee45751e2abf3e4fc8946939630b11b371ea8ae39ccdc3056e98f5cc3f600360046040516113239291906129d1565b60405180910390a150565b60008054906101000a900473ffffffffffffffffffffffffffffffffffffffff1673ffffffffffffffffffffffffffffffffffffffff163373ffffffffffffffffffffffffffffffffffffffff16146113bc576040517f08c379a00000000000000000000000000000000000000000000000000000000081526004016113b3906127b0565b60405180910390fd5b60048060058111156113d1576113d0611b9a565b5b600360009054906101000a900460ff1660058111156113f3576113f2611b9a565b5b14611433576040517f08c379a000000000000000000000000000000000000000000000000000000000815260040161142a9061222d565b60405180910390fd5b6005600360006101000a81548160ff0219169083600581111561145957611458611b9a565b5b02179055507f0a97a4ee45751e2abf3e4fc8946939630b11b371ea8ae39ccdc3056e98f5cc3f600460056040516114919291906129d1565b60405180910390a1600060045467ffffffffffffffff8111156114b7576114b6611c47565b5b6040519080825280602002602001820160405280156114e55781602001602082028036833780820191505090505b50905060005b6004548110156115d55760008060005b60068054905081101561157457826006828154811061151d5761151c612391565b5b9060005260206000209060020201600101541115611561576006818154811061154957611548612391565b5b90600052602060002090600202016001015492508091505b808061156c906123ef565b9150506114fb565b508084848151811061158957611588612391565b5b6020026020010181815250506000600682815481106115ab576115aa612391565b5b906000526020600020906002020160010181905550505080806115cd906123ef565b9150506114eb565b5080600590805190602001906115ec929190611a8f565b505050565b6000600680549050905090565b6060600060025467ffffffffffffffff81111561161e5761161d611c47565b5b60405190808252806020026020018201604052801561164c5781602001602082028036833780820191505090505b5090506000805b825181101561174157600083828151811061167157611670612391565b5b60200260200101519050600160008273ffffffffffffffffffffffffffffffffffffffff1673ffffffffffffffffffffffffffffffffffffffff16815260200190815260200160002060000160009054906101000a900460ff161561172d57808484815181106116e4576116e3612391565b5b602002602001019073ffffffffffffffffffffffffffffffffffffffff16908173ffffffffffffffffffffffffffffffffffffffff16815250508280611729906123ef565b9350505b508080611739906123ef565b915050611653565b50819250505090565b60008054906101000a900473ffffffffffffffffffffffffffffffffffffffff1673ffffffffffffffffffffffffffffffffffffffff163373ffffffffffffffffffffffffffffffffffffffff16146117d8576040517f08c379a00000000000000000000000000000000000000000000000000000000081526004016117cf906127b0565b60405180910390fd5b60008060058111156117ed576117ec611b9a565b5b600360009054906101000a900460ff16600581111561180f5761180e611b9a565b5b1461184f576040517f08c379a00000000000000000000000000000000000000000000000000000000081526004016118469061222d565b60405180910390fd5b6001600360006101000a81548160ff0219169083600581111561187557611874611b9a565b5b02179055507f0a97a4ee45751e2abf3e4fc8946939630b11b371ea8ae39ccdc3056e98f5cc3f600060016040516118ad9291906129d1565b60405180910390a150565b60045481565b60008054906101000a900473ffffffffffffffffffffffffffffffffffffffff1673ffffffffffffffffffffffffffffffffffffffff163373ffffffffffffffffffffffffffffffffffffffff161461194c576040517f08c379a0000000000000000000000000000000000000000000000000000000008152600401611943906127b0565b60405180910390fd5b600280600581111561196157611960611b9a565b5b600360009054906101000a900460ff16600581111561198357611982611b9a565b5b146119c3576040517f08c379a00000000000000000000000000000000000000000000000000000000081526004016119ba9061222d565b60405180910390fd5b60038060006101000a81548160ff021916908360058111156119e8576119e7611b9a565b5b02179055507f0a97a4ee45751e2abf3e4fc8946939630b11b371ea8ae39ccdc3056e98f5cc3f60026003604051611a209291906129d1565b60405180910390a150565b60058181548110611a3b57600080fd5b906000526020600020016000915090505481565b508054611a5b9061248f565b6000825580601f10611a6d5750611a8c565b601f016020900490600052602060002090810190611a8b9190611adc565b5b50565b828054828255906000526020600020908101928215611acb579160200282015b82811115611aca578251825591602001919060010190611aaf565b5b509050611ad89190611adc565b5090565b5b80821115611af5576000816000905550600101611add565b5090565b6000604051905090565b600080fd5b600080fd5b6000819050919050565b611b2081611b0d565b8114611b2b57600080fd5b50565b600081359050611b3d81611b17565b92915050565b600060208284031215611b5957611b58611b03565b5b6000611b6784828501611b2e565b91505092915050565b611b7981611b0d565b82525050565b6000602082019050611b946000830184611b70565b92915050565b7f4e487b7100000000000000000000000000000000000000000000000000000000600052602160045260246000fd5b60068110611bda57611bd9611b9a565b5b50565b6000819050611beb82611bc9565b919050565b6000611bfb82611bdd565b9050919050565b611c0b81611bf0565b82525050565b6000602082019050611c266000830184611c02565b92915050565b600080fd5b600080fd5b6000601f19601f8301169050919050565b7f4e487b7100000000000000000000000000000000000000000000000000000000600052604160045260246000fd5b611c7f82611c36565b810181811067ffffffffffffffff82111715611c9e57611c9d611c47565b5b80604052505050565b6000611cb1611af9565b9050611cbd8282611c76565b919050565b600067ffffffffffffffff821115611cdd57611cdc611c47565b5b611ce682611c36565b9050602081019050919050565b82818337600083830152505050565b6000611d15611d1084611cc2565b611ca7565b905082815260208101848484011115611d3157611d30611c31565b5b611d3c848285611cf3565b509392505050565b600082601f830112611d5957611d58611c2c565b5b8135611d69848260208601611d02565b91505092915050565b600060208284031215611d8857611d87611b03565b5b600082013567ffffffffffffffff811115611da657611da5611b08565b5b611db284828501611d44565b91505092915050565b600073ffffffffffffffffffffffffffffffffffffffff82169050919050565b6000611de682611dbb565b9050919050565b611df681611ddb565b8114611e0157600080fd5b50565b600081359050611e1381611ded565b92915050565b600060208284031215611e2f57611e2e611b03565b5b6000611e3d84828501611e04565b91505092915050565b600081519050919050565b600082825260208201905092915050565b6000819050602082019050919050565b600081519050919050565b600082825260208201905092915050565b60005b83811015611eac578082015181840152602081019050611e91565b60008484015250505050565b6000611ec382611e72565b611ecd8185611e7d565b9350611edd818560208601611e8e565b611ee681611c36565b840191505092915050565b611efa81611b0d565b82525050565b60006040830160008301518482036000860152611f1d8282611eb8565b9150506020830151611f326020860182611ef1565b508091505092915050565b6000611f498383611f00565b905092915050565b6000602082019050919050565b6000611f6982611e46565b611f738185611e51565b935083602082028501611f8585611e62565b8060005b85811015611fc15784840389528151611fa28582611f3d565b9450611fad83611f51565b925060208a01995050600181019050611f89565b50829750879550505050505092915050565b60006020820190508181036000830152611fed8184611f5e565b905092915050565b611ffe81611ddb565b82525050565b60006020820190506120196000830184611ff5565b92915050565b600081519050919050565b600082825260208201905092915050565b6000819050602082019050919050565b60006120578383611ef1565b60208301905092915050565b6000602082019050919050565b600061207b8261201f565b612085818561202a565b93506120908361203b565b8060005b838110156120c15781516120a8888261204b565b97506120b383612063565b925050600181019050612094565b5085935050505092915050565b600060208201905081810360008301526120e88184612070565b905092915050565b600081519050919050565b600082825260208201905092915050565b6000819050602082019050919050565b61212581611ddb565b82525050565b6000612137838361211c565b60208301905092915050565b6000602082019050919050565b600061215b826120f0565b61216581856120fb565b93506121708361210c565b8060005b838110156121a1578151612188888261212b565b975061219383612143565b925050600181019050612174565b5085935050505092915050565b600060208201905081810360008301526121c88184612150565b905092915050565b600082825260208201905092915050565b7f4c65207374617475742065737420696e76616c69646500000000000000000000600082015250565b60006122176016836121d0565b9150612222826121e1565b602082019050919050565b600060208201905081810360008301526122468161220a565b9050919050565b7f566f7573206e27c3aa7465732070617320656e72656769737472c3a900000000600082015250565b6000612283601c836121d0565b915061228e8261224d565b602082019050919050565b600060208201905081810360008301526122b281612276565b9050919050565b7f566f7573206176657a2064c3a96ac3a020766f74c3a900000000000000000000600082015250565b60006122ef6016836121d0565b91506122fa826122b9565b602082019050919050565b6000602082019050818103600083015261231e816122e2565b9050919050565b7f494420696e76616c696465000000000000000000000000000000000000000000600082015250565b600061235b600b836121d0565b915061236682612325565b602082019050919050565b6000602082019050818103600083015261238a8161234e565b9050919050565b7f4e487b7100000000000000000000000000000000000000000000000000000000600052603260045260246000fd5b7f4e487b7100000000000000000000000000000000000000000000000000000000600052601160045260246000fd5b60006123fa82611b0d565b91507fffffffffffffffffffffffffffffffffffffffffffffffffffffffffffffffff820361242c5761242b6123c0565b5b600182019050919050565b600060408201905061244c6000830185611ff5565b6124596020830184611b70565b9392505050565b7f4e487b7100000000000000000000000000000000000000000000000000000000600052602260045260246000fd5b600060028204905060018216806124a757607f821691505b6020821081036124ba576124b9612460565b5b50919050565b60008190508160005260206000209050919050565b60006020601f8301049050919050565b600082821b905092915050565b6000600883026125227fffffffffffffffffffffffffffffffffffffffffffffffffffffffffffffffff826124e5565b61252c86836124e5565b95508019841693508086168417925050509392505050565b6000819050919050565b600061256961256461255f84611b0d565b612544565b611b0d565b9050919050565b6000819050919050565b6125838361254e565b61259761258f82612570565b8484546124f2565b825550505050565b600090565b6125ac61259f565b6125b781848461257a565b505050565b5b818110156125db576125d06000826125a4565b6001810190506125bd565b5050565b601f821115612620576125f1816124c0565b6125fa846124d5565b81016020851015612609578190505b61261d612615856124d5565b8301826125bc565b50505b505050565b600082821c905092915050565b600061264360001984600802612625565b1980831691505092915050565b600061265c8383612632565b9150826002028217905092915050565b61267582611e72565b67ffffffffffffffff81111561268e5761268d611c47565b5b612698825461248f565b6126a38282856125df565b600060209050601f8311600181146126d657600084156126c4578287015190505b6126ce8582612650565b865550612736565b601f1984166126e4866124c0565b60005b8281101561270c578489015182556001820191506020850194506020810190506126e7565b868310156127295784890151612725601f891682612632565b8355505b6001600288020188555050505b505050505050565b7f566f7573206e27c3aa74657320706173206c2761646d696e697374726174657560008201527f7200000000000000000000000000000000000000000000000000000000000000602082015250565b600061279a6021836121d0565b91506127a58261273e565b604082019050919050565b600060208201905081810360008301526127c98161278d565b9050919050565b7f4c2749442065737420696e76616c696465000000000000000000000000000000600082015250565b60006128066011836121d0565b9150612811826127d0565b602082019050919050565b60006020820190508181036000830152612835816127f9565b9050919050565b600061284782611b0d565b915061285283611b0d565b925082820390508181111561286a576128696123c0565b5b92915050565b600061287b82611b0d565b915061288683611b0d565b925082820190508082111561289e5761289d6123c0565b5b92915050565b6000815490506128b38161248f565b9050919050565b8181036128c85750506129a0565b6128d1826128a4565b67ffffffffffffffff8111156128ea576128e9611c47565b5b6128f4825461248f565b6128ff8282856125df565b6000601f83116001811461292e576000841561291c578287015490505b6129268582612650565b865550612999565b601f19841661293c876124c0565b9650612947866124c0565b60005b8281101561296f5784890154825560018201915060018501945060208101905061294a565b8683101561298c5784890154612988601f891682612632565b8355505b6001600288020188555050505b5050505050505b565b7f4e487b7100000000000000000000000000000000000000000000000000000000600052603160045260246000fd5b60006040820190506129e66000830185611c02565b6129f36020830184611c02565b9392505050565b7f4c27c3a96c656374657572206e276573742070617320656e72656769737472c360008201527fa900000000000000000000000000000000000000000000000000000000000000602082015250565b6000612a566021836121d0565b9150612a61826129fa565b604082019050919050565b60006020820190508181036000830152612a8581612a49565b9050919050565b6000612a9782611b0d565b915060008203612aaa57612aa96123c0565b5b600182039050919050565b7f4c657320766f746573206e276f6e742070617320c3a974c3a920636f6d7074c360008201527fa973000000000000000000000000000000000000000000000000000000000000602082015250565b6000612b116022836121d0565b9150612b1c82612ab5565b604082019050919050565b60006020820190508181036000830152612b4081612b04565b905091905056fea264697066735822122046c4ea4d0088f846856b6f306a7bfa0b585f8eef1ab6acd0260d9ab87547abbc64736f6c63430008120033",
  "immutableReferences": {},
  "source": "pragma solidity ^0.8.0 <0.8.19;\r\n\r\ncontract Voting {\r\n    address private admin;\r\n    mapping(address => Voter) private voters;\r\n    uint private voterCount;\r\n    WorkflowStatus public status;\r\n    //Il y a possibilit d'avoir un ou plusieurs gagnants selon l'instance\r\n    uint public numberOfWinningProposals = 1;\r\n    uint[] public winningProposalIds;\r\n    Proposal[] private proposals;\r\n\r\n    struct Voter {\r\n        bool isRegistered;\r\n        bool hasVoted;\r\n        uint votedProposalId;\r\n    }\r\n\r\n    struct Proposal {\r\n        string description;\r\n        uint voteCount;\r\n    }\r\n\r\n    enum WorkflowStatus {\r\n        RegisteringVoters,\r\n        ProposalsRegistrationStarted,\r\n        ProposalsRegistrationEnded,\r\n        VotingSessionStarted,\r\n        VotingSessionEnded,\r\n        VotesTallied\r\n    }\r\n\r\n    constructor(uint _numberOfWinningProposals) {\r\n        numberOfWinningProposals = _numberOfWinningProposals;\r\n        status = WorkflowStatus.RegisteringVoters;\r\n        admin = msg.sender;\r\n        voterCount = 0;\r\n    }\r\n\r\n    event VoterRegistered(address voterAddress);\r\n\r\n    event WorkflowStatusChange(WorkflowStatus previousStatus, WorkflowStatus newStatus);\r\n\r\n    event ProposalRegistered(uint proposalId);\r\n\r\n    event Voted(address voter, uint proposalId);\r\n\r\n    modifier checkStage(WorkflowStatus _status) {\r\n        require(status == _status, \"Le statut est invalide\");\r\n        _;\r\n    }\r\n\r\n    modifier checkAdmin() {\r\n        require(msg.sender == admin, unicode\"Vous n'tes pas l'administrateur\");\r\n        _;\r\n    }\r\n\r\n    function getVoterCount() public view returns (uint) {\r\n        return voterCount;\r\n    }\r\n\r\n    function getVoters() public view returns (address[] memory){\r\n        address[] memory registeredVotersArray = new address[](voterCount);\r\n\r\n        uint currentIndex = 0;\r\n        for (uint i = 0; i < registeredVotersArray.length; i++) {\r\n            address voterAddress = registeredVotersArray[i];\r\n            if (voters[voterAddress].isRegistered) {\r\n                registeredVotersArray[currentIndex] = voterAddress;\r\n                currentIndex++;\r\n            }\r\n        }\r\n\r\n        return registeredVotersArray;\r\n    }\r\n\r\n    function getProposalCount() public view returns (uint) {\r\n        return proposals.length;\r\n    }\r\n\r\n    function getProposals() public view returns (Proposal[] memory){\r\n        return proposals;\r\n    }\r\n\r\n    function getAdmin() public view returns (address){\r\n        return admin;\r\n    }\r\n\r\n    function registerVoter(address _voterAddress) public checkAdmin checkStage(WorkflowStatus.RegisteringVoters) {\r\n        voters[_voterAddress] = Voter(true, false, 0);\r\n        voterCount++;\r\n\r\n\r\n        emit VoterRegistered(_voterAddress);\r\n    }\r\n\r\n    function startProposalsRegistration() public checkAdmin checkStage(WorkflowStatus.RegisteringVoters) {\r\n        status = WorkflowStatus.ProposalsRegistrationStarted;\r\n        emit WorkflowStatusChange(WorkflowStatus.RegisteringVoters, WorkflowStatus.ProposalsRegistrationStarted);\r\n    }\r\n\r\n    function registerProposal(string memory _description) public checkStage(WorkflowStatus.ProposalsRegistrationStarted) {\r\n        require(msg.sender == admin || voters[msg.sender].isRegistered, unicode\"Vous n'tes pas enregistr\");\r\n\r\n        uint proposalId = proposals.length;\r\n        proposals.push(Proposal(_description, 0));\r\n        emit ProposalRegistered(proposalId);\r\n    }\r\n\r\n    function removeVoter(address _address) public checkAdmin {\r\n        require(status == WorkflowStatus.RegisteringVoters, \"Le statut est invalide\");\r\n        require(voters[_address].isRegistered, unicode\"L'lecteur n'est pas enregistr\");\r\n\r\n        voters[_address].isRegistered = false;\r\n        voterCount--;\r\n    }\r\n\r\n    function removeProposal(uint _proposalId) public checkAdmin {\r\n        require(status == WorkflowStatus.ProposalsRegistrationStarted, \"Le statut est invalide\");\r\n        require(_proposalId < proposals.length, \"L'ID est invalide\");\r\n\r\n        for (uint i = _proposalId; i < proposals.length - 1; i++) {\r\n            proposals[i] = proposals[i + 1];\r\n        }\r\n        proposals.pop();\r\n    }\r\n\r\n    function endProposalsRegistration() public checkAdmin checkStage(WorkflowStatus.ProposalsRegistrationStarted) {\r\n        status = WorkflowStatus.ProposalsRegistrationEnded;\r\n        emit WorkflowStatusChange(WorkflowStatus.ProposalsRegistrationStarted, WorkflowStatus.ProposalsRegistrationEnded);\r\n    }\r\n\r\n    function startVotingSession() public checkAdmin checkStage(WorkflowStatus.ProposalsRegistrationEnded) {\r\n        status = WorkflowStatus.VotingSessionStarted;\r\n        emit WorkflowStatusChange(WorkflowStatus.ProposalsRegistrationEnded, WorkflowStatus.VotingSessionStarted);\r\n    }\r\n\r\n    function vote(uint _proposalId) public checkStage(WorkflowStatus.VotingSessionStarted) {\r\n        require(voters[msg.sender].isRegistered, unicode\"Vous n'tes pas enregistr\");\r\n        require(!voters[msg.sender].hasVoted, unicode\"Vous avez dj vot\");\r\n        require(_proposalId < proposals.length, \"ID invalide\");\r\n\r\n        voters[msg.sender].hasVoted = true;\r\n        voters[msg.sender].votedProposalId = _proposalId;\r\n        proposals[_proposalId].voteCount++;\r\n        emit Voted(msg.sender, _proposalId);\r\n    }\r\n\r\n    function endVotingSession() public checkAdmin checkStage(WorkflowStatus.VotingSessionStarted) {\r\n        status = WorkflowStatus.VotingSessionEnded;\r\n        emit WorkflowStatusChange(WorkflowStatus.VotingSessionStarted, WorkflowStatus.VotingSessionEnded);\r\n    }\r\n\r\n    function countVotes() public checkAdmin checkStage(WorkflowStatus.VotingSessionEnded) {\r\n        status = WorkflowStatus.VotesTallied;\r\n        emit WorkflowStatusChange(WorkflowStatus.VotingSessionEnded, WorkflowStatus.VotesTallied);\r\n\r\n        uint[] memory topProposalIds = new uint[](numberOfWinningProposals);\r\n\r\n        for (uint j = 0; j < numberOfWinningProposals; j++) {\r\n            uint maxVoteCount = 0;\r\n            uint winningProposalId = 0;\r\n            for (uint i = 0; i < proposals.length; i++) {\r\n                if (proposals[i].voteCount > maxVoteCount) {\r\n                    maxVoteCount = proposals[i].voteCount;\r\n                    winningProposalId = i;\r\n                }\r\n            }\r\n            topProposalIds[j] = winningProposalId;\r\n            //pour viter de reslectionner cette proposition, on mets son compte  0\r\n            proposals[winningProposalId].voteCount = 0;\r\n        }\r\n        winningProposalIds = topProposalIds;\r\n    }\r\n\r\n    function getWinner() public view returns (uint[] memory){\r\n        require(status == WorkflowStatus.VotesTallied, unicode\"Les votes n'ont pas t compts\");\r\n        return winningProposalIds;\r\n    }\r\n}",
  "sourcePath": "C:\\Users\\LeaBe\\smartcontracts\\economie_durable\\dapp\\contracts\\Voting.sol",
  "compiler": {
    "name": "solc",
    "version": "0.8.18+commit.87f61d96.Emscripten.clang"
  },
  "schemaVersion": "3.4.16",
  "updatedAt": "2023-10-28T02:05:01.697Z",
  "networkType": "ethereum",
  "devdoc": {
    "kind": "dev",
    "methods": {},
    "version": 1
  },
  "userdoc": {
    "kind": "user",
    "methods": {},
    "version": 1
  }
}