{
  "contractName": "Voting",
  "abi": [
    {
      "inputs": [
        {
          "internalType": "uint256",
          "name": "_numberOfWinningProposals",
          "type": "uint256"
        }
      ],
      "stateMutability": "nonpayable",
      "type": "constructor"
    },
    {
      "anonymous": false,
      "inputs": [
        {
          "indexed": false,
          "internalType": "uint256",
          "name": "proposalId",
          "type": "uint256"
        }
      ],
      "name": "ProposalRegistered",
      "type": "event"
    },
    {
      "anonymous": false,
      "inputs": [
        {
          "indexed": false,
          "internalType": "address",
          "name": "voter",
          "type": "address"
        },
        {
          "indexed": false,
          "internalType": "uint256",
          "name": "proposalId",
          "type": "uint256"
        }
      ],
      "name": "Voted",
      "type": "event"
    },
    {
      "anonymous": false,
      "inputs": [
        {
          "indexed": false,
          "internalType": "address",
          "name": "voterAddress",
          "type": "address"
        }
      ],
      "name": "VoterRegistered",
      "type": "event"
    },
    {
      "anonymous": false,
      "inputs": [
        {
          "indexed": false,
          "internalType": "enum Voting.WorkflowStatus",
          "name": "previousStatus",
          "type": "uint8"
        },
        {
          "indexed": false,
          "internalType": "enum Voting.WorkflowStatus",
          "name": "newStatus",
          "type": "uint8"
        }
      ],
      "name": "WorkflowStatusChange",
      "type": "event"
    },
    {
      "inputs": [
        {
          "internalType": "address",
          "name": "_voterAddress",
          "type": "address"
        }
      ],
      "name": "registerVoter",
      "outputs": [],
      "stateMutability": "nonpayable",
      "type": "function"
    },
    {
      "inputs": [],
      "name": "getVoterCount",
      "outputs": [
        {
          "internalType": "uint256",
          "name": "",
          "type": "uint256"
        }
      ],
      "stateMutability": "view",
      "type": "function",
      "constant": true
    },
    {
      "inputs": [],
      "name": "getVoters",
      "outputs": [
        {
          "internalType": "address[]",
          "name": "",
          "type": "address[]"
        }
      ],
      "stateMutability": "view",
      "type": "function",
      "constant": true
    },
    {
      "inputs": [],
      "name": "getProposalCount",
      "outputs": [
        {
          "internalType": "uint256",
          "name": "",
          "type": "uint256"
        }
      ],
      "stateMutability": "view",
      "type": "function",
      "constant": true
    },
    {
      "inputs": [],
      "name": "getProposals",
      "outputs": [
        {
          "components": [
            {
              "internalType": "string",
              "name": "description",
              "type": "string"
            },
            {
              "internalType": "uint256",
              "name": "voteCount",
              "type": "uint256"
            }
          ],
          "internalType": "struct Voting.Proposal[]",
          "name": "",
          "type": "tuple[]"
        }
      ],
      "stateMutability": "view",
      "type": "function",
      "constant": true
    },
    {
      "inputs": [],
      "name": "getAdmin",
      "outputs": [
        {
          "internalType": "address",
          "name": "",
          "type": "address"
        }
      ],
      "stateMutability": "view",
      "type": "function",
      "constant": true
    },
    {
      "inputs": [],
      "name": "startProposalsRegistration",
      "outputs": [],
      "stateMutability": "nonpayable",
      "type": "function"
    },
    {
      "inputs": [
        {
          "internalType": "string",
          "name": "_description",
          "type": "string"
        }
      ],
      "name": "registerProposal",
      "outputs": [],
      "stateMutability": "nonpayable",
      "type": "function"
    },
    {
      "inputs": [
        {
          "internalType": "address",
          "name": "_address",
          "type": "address"
        }
      ],
      "name": "removeVoter",
      "outputs": [],
      "stateMutability": "nonpayable",
      "type": "function"
    },
    {
      "inputs": [
        {
          "internalType": "uint256",
          "name": "_proposalId",
          "type": "uint256"
        }
      ],
      "name": "removeProposal",
      "outputs": [],
      "stateMutability": "nonpayable",
      "type": "function"
    },
    {
      "inputs": [],
      "name": "endProposalsRegistration",
      "outputs": [],
      "stateMutability": "nonpayable",
      "type": "function"
    },
    {
      "inputs": [],
      "name": "startVotingSession",
      "outputs": [],
      "stateMutability": "nonpayable",
      "type": "function"
    },
    {
      "inputs": [
        {
          "internalType": "uint256",
          "name": "_proposalId",
          "type": "uint256"
        }
      ],
      "name": "vote",
      "outputs": [],
      "stateMutability": "nonpayable",
      "type": "function"
    },
    {
      "inputs": [],
      "name": "endVotingSession",
      "outputs": [],
      "stateMutability": "nonpayable",
      "type": "function"
    },
    {
      "inputs": [],
      "name": "countVotes",
      "outputs": [],
      "stateMutability": "nonpayable",
      "type": "function"
    },
    {
      "inputs": [],
      "name": "getWinner",
      "outputs": [
        {
          "internalType": "uint256[]",
          "name": "",
          "type": "uint256[]"
        }
      ],
      "stateMutability": "view",
      "type": "function",
      "constant": true
    }
  ],
  "bytecode": "0x60806040523480156200001157600080fd5b5060405162002b5b38038062002b5b8339818101604052810190620000379190620000fb565b806004819055506000600360006101000a81548160ff021916908360058111156200006757620000666200012d565b5b0217905550336000806101000a81548173ffffffffffffffffffffffffffffffffffffffff021916908373ffffffffffffffffffffffffffffffffffffffff1602179055506000600281905550506200015c565b600080fd5b6000819050919050565b620000d581620000c0565b8114620000e157600080fd5b50565b600081519050620000f581620000ca565b92915050565b600060208284031215620001145762000113620000bb565b5b60006200012484828501620000e4565b91505092915050565b7f4e487b7100000000000000000000000000000000000000000000000000000000600052602160045260246000fd5b6129ef806200016c6000396000f3fe608060405234801561001057600080fd5b50600436106101005760003560e01c806386c1ff6811610097578063c08cc02d11610066578063c08cc02d14610227578063cdd7225314610245578063e09b8c7914610263578063ee74c6781461026d57610100565b806386c1ff68146101d95780638e7ea5b2146101f5578063a7bfab1614610213578063b647990a1461021d57610100565b80634ce4e6c7116100d35780634ce4e6c71461017757806362564c48146101935780636c297445146101b15780636e9960c3146101bb57610100565b80630121b93f1461010557806311174a29146101215780632f95355b1461013f57806338db6dd31461015b575b600080fd5b61011f600480360381019061011a91906119d0565b610277565b005b61012961056d565b6040516101369190611a0c565b60405180910390f35b61015960048036038101906101549190611b6d565b610577565b005b61017560048036038101906101709190611c14565b61077c565b005b610191600480360381019061018c91906119d0565b6108d9565b005b61019b610b0f565b6040516101a89190611dce565b60405180910390f35b6101b9610c0a565b005b6101c3610d78565b6040516101d09190611dff565b60405180910390f35b6101f360048036038101906101ee9190611c14565b610da1565b005b6101fd610faa565b60405161020a9190611ec9565b60405180910390f35b61021b611077565b005b6102256111e5565b005b61022f6114a8565b60405161023c9190611a0c565b60405180910390f35b61024d6114b5565b60405161025a9190611fa9565b60405180910390f35b61026b611601565b005b61027561176f565b005b600380600581111561028c5761028b611fcb565b5b600360009054906101000a900460ff1660058111156102ae576102ad611fcb565b5b146102ee576040517f08c379a00000000000000000000000000000000000000000000000000000000081526004016102e590612057565b60405180910390fd5b600160003373ffffffffffffffffffffffffffffffffffffffff1673ffffffffffffffffffffffffffffffffffffffff16815260200190815260200160002060000160009054906101000a900460ff1661037d576040517f08c379a0000000000000000000000000000000000000000000000000000000008152600401610374906120c3565b60405180910390fd5b600160003373ffffffffffffffffffffffffffffffffffffffff1673ffffffffffffffffffffffffffffffffffffffff16815260200190815260200160002060000160019054906101000a900460ff161561040d576040517f08c379a00000000000000000000000000000000000000000000000000000000081526004016104049061212f565b60405180910390fd5b6006805490508210610454576040517f08c379a000000000000000000000000000000000000000000000000000000000815260040161044b9061219b565b60405180910390fd5b60018060003373ffffffffffffffffffffffffffffffffffffffff1673ffffffffffffffffffffffffffffffffffffffff16815260200190815260200160002060000160016101000a81548160ff02191690831515021790555081600160003373ffffffffffffffffffffffffffffffffffffffff1673ffffffffffffffffffffffffffffffffffffffff1681526020019081526020016000206001018190555060068281548110610509576105086121bb565b5b9060005260206000209060020201600101600081548092919061052b90612219565b91905055507f4d99b957a2bc29a30ebd96a7be8e68fe50a3c701db28a91436490b7d53870ca43383604051610561929190612261565b60405180910390a15050565b6000600254905090565b600180600581111561058c5761058b611fcb565b5b600360009054906101000a900460ff1660058111156105ae576105ad611fcb565b5b146105ee576040517f08c379a00000000000000000000000000000000000000000000000000000000081526004016105e590612057565b60405180910390fd5b60008054906101000a900473ffffffffffffffffffffffffffffffffffffffff1673ffffffffffffffffffffffffffffffffffffffff163373ffffffffffffffffffffffffffffffffffffffff1614806106945750600160003373ffffffffffffffffffffffffffffffffffffffff1673ffffffffffffffffffffffffffffffffffffffff16815260200190815260200160002060000160009054906101000a900460ff165b6106d3576040517f08c379a00000000000000000000000000000000000000000000000000000000081526004016106ca906120c3565b60405180910390fd5b60006006805490509050600660405180604001604052808581526020016000815250908060018154018082558091505060019003906000526020600020906002020160009091909190915060008201518160000190816107339190612496565b506020820151816001015550507f92e393e9b54e2f801d3ea4beb0c5e71a21cc34a5d34b77d0fb8a3aa1650dc18f8160405161076f9190611a0c565b60405180910390a1505050565b600160008273ffffffffffffffffffffffffffffffffffffffff1673ffffffffffffffffffffffffffffffffffffffff16815260200190815260200160002060000160009054906101000a900460ff166108d657600060405180606001604052806001151581526020016000151581526020016000815250905080600160008473ffffffffffffffffffffffffffffffffffffffff1673ffffffffffffffffffffffffffffffffffffffff16815260200190815260200160002060008201518160000160006101000a81548160ff02191690831515021790555060208201518160000160016101000a81548160ff021916908315150217905550604082015181600101559050506001600260008282546108969190612568565b925050819055507fb6be2187d059cc2a55fe29e0e503b566e1e0f8c8780096e185429350acffd3dd826040516108cc9190611dff565b60405180910390a1505b50565b60008054906101000a900473ffffffffffffffffffffffffffffffffffffffff1673ffffffffffffffffffffffffffffffffffffffff163373ffffffffffffffffffffffffffffffffffffffff1614610967576040517f08c379a000000000000000000000000000000000000000000000000000000000815260040161095e9061260e565b60405180910390fd5b6001600581111561097b5761097a611fcb565b5b600360009054906101000a900460ff16600581111561099d5761099c611fcb565b5b146109dd576040517f08c379a00000000000000000000000000000000000000000000000000000000081526004016109d490612057565b60405180910390fd5b6006805490508110610a24576040517f08c379a0000000000000000000000000000000000000000000000000000000008152600401610a1b9061267a565b60405180910390fd5b60008190505b6001600680549050610a3c919061269a565b811015610ac8576006600182610a529190612568565b81548110610a6357610a626121bb565b5b906000526020600020906002020160068281548110610a8557610a846121bb565b5b906000526020600020906002020160008201816000019081610aa791906126e4565b50600182015481600101559050508080610ac090612219565b915050610a2a565b506006805480610adb57610ada6127cc565b5b600190038181906000526020600020906002020160008082016000610b0091906118dc565b60018201600090555050905550565b60606006805480602002602001604051908101604052809291908181526020016000905b82821015610c015783829060005260206000209060020201604051806040016040529081600082018054610b66906122b9565b80601f0160208091040260200160405190810160405280929190818152602001828054610b92906122b9565b8015610bdf5780601f10610bb457610100808354040283529160200191610bdf565b820191906000526020600020905b815481529060010190602001808311610bc257829003601f168201915b5050505050815260200160018201548152505081526020019060010190610b33565b50505050905090565b60008054906101000a900473ffffffffffffffffffffffffffffffffffffffff1673ffffffffffffffffffffffffffffffffffffffff163373ffffffffffffffffffffffffffffffffffffffff1614610c98576040517f08c379a0000000000000000000000000000000000000000000000000000000008152600401610c8f9061260e565b60405180910390fd5b6001806005811115610cad57610cac611fcb565b5b600360009054906101000a900460ff166005811115610ccf57610cce611fcb565b5b14610d0f576040517f08c379a0000000000000000000000000000000000000000000000000000000008152600401610d0690612057565b60405180910390fd5b6002600360006101000a81548160ff02191690836005811115610d3557610d34611fcb565b5b02179055507f0a97a4ee45751e2abf3e4fc8946939630b11b371ea8ae39ccdc3056e98f5cc3f60016002604051610d6d929190612843565b60405180910390a150565b60008060009054906101000a900473ffffffffffffffffffffffffffffffffffffffff16905090565b60008054906101000a900473ffffffffffffffffffffffffffffffffffffffff1673ffffffffffffffffffffffffffffffffffffffff163373ffffffffffffffffffffffffffffffffffffffff1614610e2f576040517f08c379a0000000000000000000000000000000000000000000000000000000008152600401610e269061260e565b60405180910390fd5b60006005811115610e4357610e42611fcb565b5b600360009054906101000a900460ff166005811115610e6557610e64611fcb565b5b14610ea5576040517f08c379a0000000000000000000000000000000000000000000000000000000008152600401610e9c90612057565b60405180910390fd5b600160008273ffffffffffffffffffffffffffffffffffffffff1673ffffffffffffffffffffffffffffffffffffffff16815260200190815260200160002060000160009054906101000a900460ff16610f34576040517f08c379a0000000000000000000000000000000000000000000000000000000008152600401610f2b906128de565b60405180910390fd5b6000600160008373ffffffffffffffffffffffffffffffffffffffff1673ffffffffffffffffffffffffffffffffffffffff16815260200190815260200160002060000160006101000a81548160ff02191690831515021790555060026000815480929190610fa2906128fe565b919050555050565b6060600580811115610fbf57610fbe611fcb565b5b600360009054906101000a900460ff166005811115610fe157610fe0611fcb565b5b14611021576040517f08c379a000000000000000000000000000000000000000000000000000000000815260040161101890612999565b60405180910390fd5b600580548060200260200160405190810160405280929190818152602001828054801561106d57602002820191906000526020600020905b815481526020019060010190808311611059575b5050505050905090565b60008054906101000a900473ffffffffffffffffffffffffffffffffffffffff1673ffffffffffffffffffffffffffffffffffffffff163373ffffffffffffffffffffffffffffffffffffffff1614611105576040517f08c379a00000000000000000000000000000000000000000000000000000000081526004016110fc9061260e565b60405180910390fd5b600380600581111561111a57611119611fcb565b5b600360009054906101000a900460ff16600581111561113c5761113b611fcb565b5b1461117c576040517f08c379a000000000000000000000000000000000000000000000000000000000815260040161117390612057565b60405180910390fd5b6004600360006101000a81548160ff021916908360058111156111a2576111a1611fcb565b5b02179055507f0a97a4ee45751e2abf3e4fc8946939630b11b371ea8ae39ccdc3056e98f5cc3f600360046040516111da929190612843565b60405180910390a150565b60008054906101000a900473ffffffffffffffffffffffffffffffffffffffff1673ffffffffffffffffffffffffffffffffffffffff163373ffffffffffffffffffffffffffffffffffffffff1614611273576040517f08c379a000000000000000000000000000000000000000000000000000000000815260040161126a9061260e565b60405180910390fd5b600480600581111561128857611287611fcb565b5b600360009054906101000a900460ff1660058111156112aa576112a9611fcb565b5b146112ea576040517f08c379a00000000000000000000000000000000000000000000000000000000081526004016112e190612057565b60405180910390fd5b6005600360006101000a81548160ff021916908360058111156113105761130f611fcb565b5b02179055507f0a97a4ee45751e2abf3e4fc8946939630b11b371ea8ae39ccdc3056e98f5cc3f60046005604051611348929190612843565b60405180910390a1600060045467ffffffffffffffff81111561136e5761136d611a42565b5b60405190808252806020026020018201604052801561139c5781602001602082028036833780820191505090505b50905060005b60045481101561148c5760008060005b60068054905081101561142b5782600682815481106113d4576113d36121bb565b5b90600052602060002090600202016001015411156114185760068181548110611400576113ff6121bb565b5b90600052602060002090600202016001015492508091505b808061142390612219565b9150506113b2565b50808484815181106114405761143f6121bb565b5b602002602001018181525050600060068281548110611462576114616121bb565b5b9060005260206000209060020201600101819055505050808061148490612219565b9150506113a2565b5080600590805190602001906114a392919061191c565b505050565b6000600680549050905090565b6060600060025467ffffffffffffffff8111156114d5576114d4611a42565b5b6040519080825280602002602001820160405280156115035781602001602082028036833780820191505090505b5090506000805b82518110156115f8576000838281518110611528576115276121bb565b5b60200260200101519050600160008273ffffffffffffffffffffffffffffffffffffffff1673ffffffffffffffffffffffffffffffffffffffff16815260200190815260200160002060000160009054906101000a900460ff16156115e4578084848151811061159b5761159a6121bb565b5b602002602001019073ffffffffffffffffffffffffffffffffffffffff16908173ffffffffffffffffffffffffffffffffffffffff168152505082806115e090612219565b9350505b5080806115f090612219565b91505061150a565b50819250505090565b60008054906101000a900473ffffffffffffffffffffffffffffffffffffffff1673ffffffffffffffffffffffffffffffffffffffff163373ffffffffffffffffffffffffffffffffffffffff161461168f576040517f08c379a00000000000000000000000000000000000000000000000000000000081526004016116869061260e565b60405180910390fd5b60008060058111156116a4576116a3611fcb565b5b600360009054906101000a900460ff1660058111156116c6576116c5611fcb565b5b14611706576040517f08c379a00000000000000000000000000000000000000000000000000000000081526004016116fd90612057565b60405180910390fd5b6001600360006101000a81548160ff0219169083600581111561172c5761172b611fcb565b5b02179055507f0a97a4ee45751e2abf3e4fc8946939630b11b371ea8ae39ccdc3056e98f5cc3f60006001604051611764929190612843565b60405180910390a150565b60008054906101000a900473ffffffffffffffffffffffffffffffffffffffff1673ffffffffffffffffffffffffffffffffffffffff163373ffffffffffffffffffffffffffffffffffffffff16146117fd576040517f08c379a00000000000000000000000000000000000000000000000000000000081526004016117f49061260e565b60405180910390fd5b600280600581111561181257611811611fcb565b5b600360009054906101000a900460ff16600581111561183457611833611fcb565b5b14611874576040517f08c379a000000000000000000000000000000000000000000000000000000000815260040161186b90612057565b60405180910390fd5b60038060006101000a81548160ff0219169083600581111561189957611898611fcb565b5b02179055507f0a97a4ee45751e2abf3e4fc8946939630b11b371ea8ae39ccdc3056e98f5cc3f600260036040516118d1929190612843565b60405180910390a150565b5080546118e8906122b9565b6000825580601f106118fa5750611919565b601f0160209004906000526020600020908101906119189190611969565b5b50565b828054828255906000526020600020908101928215611958579160200282015b8281111561195757825182559160200191906001019061193c565b5b5090506119659190611969565b5090565b5b8082111561198257600081600090555060010161196a565b5090565b6000604051905090565b600080fd5b600080fd5b6000819050919050565b6119ad8161199a565b81146119b857600080fd5b50565b6000813590506119ca816119a4565b92915050565b6000602082840312156119e6576119e5611990565b5b60006119f4848285016119bb565b91505092915050565b611a068161199a565b82525050565b6000602082019050611a2160008301846119fd565b92915050565b600080fd5b600080fd5b6000601f19601f8301169050919050565b7f4e487b7100000000000000000000000000000000000000000000000000000000600052604160045260246000fd5b611a7a82611a31565b810181811067ffffffffffffffff82111715611a9957611a98611a42565b5b80604052505050565b6000611aac611986565b9050611ab88282611a71565b919050565b600067ffffffffffffffff821115611ad857611ad7611a42565b5b611ae182611a31565b9050602081019050919050565b82818337600083830152505050565b6000611b10611b0b84611abd565b611aa2565b905082815260208101848484011115611b2c57611b2b611a2c565b5b611b37848285611aee565b509392505050565b600082601f830112611b5457611b53611a27565b5b8135611b64848260208601611afd565b91505092915050565b600060208284031215611b8357611b82611990565b5b600082013567ffffffffffffffff811115611ba157611ba0611995565b5b611bad84828501611b3f565b91505092915050565b600073ffffffffffffffffffffffffffffffffffffffff82169050919050565b6000611be182611bb6565b9050919050565b611bf181611bd6565b8114611bfc57600080fd5b50565b600081359050611c0e81611be8565b92915050565b600060208284031215611c2a57611c29611990565b5b6000611c3884828501611bff565b91505092915050565b600081519050919050565b600082825260208201905092915050565b6000819050602082019050919050565b600081519050919050565b600082825260208201905092915050565b60005b83811015611ca7578082015181840152602081019050611c8c565b60008484015250505050565b6000611cbe82611c6d565b611cc88185611c78565b9350611cd8818560208601611c89565b611ce181611a31565b840191505092915050565b611cf58161199a565b82525050565b60006040830160008301518482036000860152611d188282611cb3565b9150506020830151611d2d6020860182611cec565b508091505092915050565b6000611d448383611cfb565b905092915050565b6000602082019050919050565b6000611d6482611c41565b611d6e8185611c4c565b935083602082028501611d8085611c5d565b8060005b85811015611dbc5784840389528151611d9d8582611d38565b9450611da883611d4c565b925060208a01995050600181019050611d84565b50829750879550505050505092915050565b60006020820190508181036000830152611de88184611d59565b905092915050565b611df981611bd6565b82525050565b6000602082019050611e146000830184611df0565b92915050565b600081519050919050565b600082825260208201905092915050565b6000819050602082019050919050565b6000611e528383611cec565b60208301905092915050565b6000602082019050919050565b6000611e7682611e1a565b611e808185611e25565b9350611e8b83611e36565b8060005b83811015611ebc578151611ea38882611e46565b9750611eae83611e5e565b925050600181019050611e8f565b5085935050505092915050565b60006020820190508181036000830152611ee38184611e6b565b905092915050565b600081519050919050565b600082825260208201905092915050565b6000819050602082019050919050565b611f2081611bd6565b82525050565b6000611f328383611f17565b60208301905092915050565b6000602082019050919050565b6000611f5682611eeb565b611f608185611ef6565b9350611f6b83611f07565b8060005b83811015611f9c578151611f838882611f26565b9750611f8e83611f3e565b925050600181019050611f6f565b5085935050505092915050565b60006020820190508181036000830152611fc38184611f4b565b905092915050565b7f4e487b7100000000000000000000000000000000000000000000000000000000600052602160045260246000fd5b600082825260208201905092915050565b7f4c65207374617475742065737420696e76616c69646500000000000000000000600082015250565b6000612041601683611ffa565b915061204c8261200b565b602082019050919050565b6000602082019050818103600083015261207081612034565b9050919050565b7f566f7573206e27c3aa7465732070617320656e72656769737472c3a900000000600082015250565b60006120ad601c83611ffa565b91506120b882612077565b602082019050919050565b600060208201905081810360008301526120dc816120a0565b9050919050565b7f566f7573206176657a2064c3a96ac3a020766f74c3a900000000000000000000600082015250565b6000612119601683611ffa565b9150612124826120e3565b602082019050919050565b600060208201905081810360008301526121488161210c565b9050919050565b7f494420696e76616c696465000000000000000000000000000000000000000000600082015250565b6000612185600b83611ffa565b91506121908261214f565b602082019050919050565b600060208201905081810360008301526121b481612178565b9050919050565b7f4e487b7100000000000000000000000000000000000000000000000000000000600052603260045260246000fd5b7f4e487b7100000000000000000000000000000000000000000000000000000000600052601160045260246000fd5b60006122248261199a565b91507fffffffffffffffffffffffffffffffffffffffffffffffffffffffffffffffff8203612256576122556121ea565b5b600182019050919050565b60006040820190506122766000830185611df0565b61228360208301846119fd565b9392505050565b7f4e487b7100000000000000000000000000000000000000000000000000000000600052602260045260246000fd5b600060028204905060018216806122d157607f821691505b6020821081036122e4576122e361228a565b5b50919050565b60008190508160005260206000209050919050565b60006020601f8301049050919050565b600082821b905092915050565b60006008830261234c7fffffffffffffffffffffffffffffffffffffffffffffffffffffffffffffffff8261230f565b612356868361230f565b95508019841693508086168417925050509392505050565b6000819050919050565b600061239361238e6123898461199a565b61236e565b61199a565b9050919050565b6000819050919050565b6123ad83612378565b6123c16123b98261239a565b84845461231c565b825550505050565b600090565b6123d66123c9565b6123e18184846123a4565b505050565b5b81811015612405576123fa6000826123ce565b6001810190506123e7565b5050565b601f82111561244a5761241b816122ea565b612424846122ff565b81016020851015612433578190505b61244761243f856122ff565b8301826123e6565b50505b505050565b600082821c905092915050565b600061246d6000198460080261244f565b1980831691505092915050565b6000612486838361245c565b9150826002028217905092915050565b61249f82611c6d565b67ffffffffffffffff8111156124b8576124b7611a42565b5b6124c282546122b9565b6124cd828285612409565b600060209050601f83116001811461250057600084156124ee578287015190505b6124f8858261247a565b865550612560565b601f19841661250e866122ea565b60005b8281101561253657848901518255600182019150602085019450602081019050612511565b86831015612553578489015161254f601f89168261245c565b8355505b6001600288020188555050505b505050505050565b60006125738261199a565b915061257e8361199a565b9250828201905080821115612596576125956121ea565b5b92915050565b7f566f7573206e27c3aa74657320706173206c2761646d696e697374726174657560008201527f7200000000000000000000000000000000000000000000000000000000000000602082015250565b60006125f8602183611ffa565b91506126038261259c565b604082019050919050565b60006020820190508181036000830152612627816125eb565b9050919050565b7f4c2749442065737420696e76616c696465000000000000000000000000000000600082015250565b6000612664601183611ffa565b915061266f8261262e565b602082019050919050565b6000602082019050818103600083015261269381612657565b9050919050565b60006126a58261199a565b91506126b08361199a565b92508282039050818111156126c8576126c76121ea565b5b92915050565b6000815490506126dd816122b9565b9050919050565b8181036126f25750506127ca565b6126fb826126ce565b67ffffffffffffffff81111561271457612713611a42565b5b61271e82546122b9565b612729828285612409565b6000601f8311600181146127585760008415612746578287015490505b612750858261247a565b8655506127c3565b601f198416612766876122ea565b9650612771866122ea565b60005b8281101561279957848901548255600182019150600185019450602081019050612774565b868310156127b657848901546127b2601f89168261245c565b8355505b6001600288020188555050505b5050505050505b565b7f4e487b7100000000000000000000000000000000000000000000000000000000600052603160045260246000fd5b6006811061280c5761280b611fcb565b5b50565b600081905061281d826127fb565b919050565b600061282d8261280f565b9050919050565b61283d81612822565b82525050565b60006040820190506128586000830185612834565b6128656020830184612834565b9392505050565b7f4c27c3a96c656374657572206e276573742070617320656e72656769737472c360008201527fa900000000000000000000000000000000000000000000000000000000000000602082015250565b60006128c8602183611ffa565b91506128d38261286c565b604082019050919050565b600060208201905081810360008301526128f7816128bb565b9050919050565b60006129098261199a565b91506000820361291c5761291b6121ea565b5b600182039050919050565b7f4c657320766f746573206e276f6e742070617320c3a974c3a920636f6d7074c360008201527fa973000000000000000000000000000000000000000000000000000000000000602082015250565b6000612983602283611ffa565b915061298e82612927565b604082019050919050565b600060208201905081810360008301526129b281612976565b905091905056fea264697066735822122037f28da1c5b5202d80fd38a5e36fecef3a5f47b00d124a8e181b39a0c6c04d6164736f6c63430008120033",
  "immutableReferences": {},
  "source": "pragma solidity ^0.8.0 <0.8.19;\r\n\r\ncontract Voting {\r\n    address private admin;\r\n    mapping(address => Voter) private voters;\r\n    uint private voterCount;\r\n    WorkflowStatus private status;\r\n    //Il y a possibilit d'avoir un ou plusieurs gagnants selon l'instance\r\n    uint private numberOfWinningProposals;\r\n    uint[] private winningProposalIds;\r\n    Proposal[] private proposals;\r\n\r\n    struct Voter {\r\n        bool isRegistered;\r\n        bool hasVoted;\r\n        uint votedProposalId;\r\n    }\r\n\r\n    struct Proposal {\r\n        string description;\r\n        uint voteCount;\r\n    }\r\n\r\n    enum WorkflowStatus {\r\n        RegisteringVoters,\r\n        ProposalsRegistrationStarted,\r\n        ProposalsRegistrationEnded,\r\n        VotingSessionStarted,\r\n        VotingSessionEnded,\r\n        VotesTallied\r\n    }\r\n\r\n    constructor(uint _numberOfWinningProposals) {\r\n        numberOfWinningProposals = _numberOfWinningProposals;\r\n        status = WorkflowStatus.RegisteringVoters;\r\n        admin = msg.sender;\r\n        voterCount = 0;\r\n    }\r\n\r\n    event VoterRegistered(address voterAddress);\r\n\r\n    event WorkflowStatusChange(WorkflowStatus previousStatus, WorkflowStatus newStatus);\r\n\r\n    event ProposalRegistered(uint proposalId);\r\n\r\n    event Voted(address voter, uint proposalId);\r\n\r\n    modifier checkStage(WorkflowStatus _status) {\r\n        require(status == _status, \"Le statut est invalide\");\r\n        _;\r\n    }\r\n\r\n    modifier checkAdmin() {\r\n        require(msg.sender == admin, unicode\"Vous n'tes pas l'administrateur\");\r\n        _;\r\n    }\r\n\r\n    function registerVoter(address _voterAddress) public{\r\n        if(!voters[_voterAddress].isRegistered){\r\n            Voter memory newVoter = Voter({\r\n                isRegistered: true,\r\n                hasVoted: false,\r\n                votedProposalId: 0\r\n            });\r\n            voters[_voterAddress] = newVoter;\r\n            voterCount+=1;\r\n            emit VoterRegistered(_voterAddress);\r\n        }\r\n    }\r\n\r\n    function getVoterCount() public view returns (uint) {\r\n        return voterCount;\r\n    }\r\n\r\n    function getVoters() public view returns (address[] memory){\r\n        address[] memory registeredVotersArray = new address[](voterCount);\r\n\r\n        uint currentIndex = 0;\r\n        for (uint i = 0; i < registeredVotersArray.length; i++) {\r\n            address voterAddress = registeredVotersArray[i];\r\n            if (voters[voterAddress].isRegistered) {\r\n                registeredVotersArray[currentIndex] = voterAddress;\r\n                currentIndex++;\r\n            }\r\n        }\r\n\r\n        return registeredVotersArray;\r\n    }\r\n\r\n    function getProposalCount() public view returns (uint) {\r\n        return proposals.length;\r\n    }\r\n\r\n    function getProposals() public view returns (Proposal[] memory){\r\n        return proposals;\r\n    }\r\n\r\n    function getAdmin() public view returns (address){\r\n        return admin;\r\n    }\r\n\r\n\r\n    function startProposalsRegistration() public checkAdmin checkStage(WorkflowStatus.RegisteringVoters) {\r\n        status = WorkflowStatus.ProposalsRegistrationStarted;\r\n        emit WorkflowStatusChange(WorkflowStatus.RegisteringVoters, WorkflowStatus.ProposalsRegistrationStarted);\r\n    }\r\n\r\n    function registerProposal(string memory _description) public checkStage(WorkflowStatus.ProposalsRegistrationStarted) {\r\n        require(msg.sender == admin || voters[msg.sender].isRegistered, unicode\"Vous n'tes pas enregistr\");\r\n\r\n        uint proposalId = proposals.length;\r\n        proposals.push(Proposal(_description, 0));\r\n        emit ProposalRegistered(proposalId);\r\n    }\r\n\r\n    function removeVoter(address _address) public checkAdmin {\r\n        require(status == WorkflowStatus.RegisteringVoters, \"Le statut est invalide\");\r\n        require(voters[_address].isRegistered, unicode\"L'lecteur n'est pas enregistr\");\r\n\r\n        voters[_address].isRegistered = false;\r\n        voterCount--;\r\n    }\r\n\r\n    function removeProposal(uint _proposalId) public checkAdmin {\r\n        require(status == WorkflowStatus.ProposalsRegistrationStarted, \"Le statut est invalide\");\r\n        require(_proposalId < proposals.length, \"L'ID est invalide\");\r\n\r\n        for (uint i = _proposalId; i < proposals.length - 1; i++) {\r\n            proposals[i] = proposals[i + 1];\r\n        }\r\n        proposals.pop();\r\n    }\r\n\r\n    function endProposalsRegistration() public checkAdmin checkStage(WorkflowStatus.ProposalsRegistrationStarted) {\r\n        status = WorkflowStatus.ProposalsRegistrationEnded;\r\n        emit WorkflowStatusChange(WorkflowStatus.ProposalsRegistrationStarted, WorkflowStatus.ProposalsRegistrationEnded);\r\n    }\r\n\r\n    function startVotingSession() public checkAdmin checkStage(WorkflowStatus.ProposalsRegistrationEnded) {\r\n        status = WorkflowStatus.VotingSessionStarted;\r\n        emit WorkflowStatusChange(WorkflowStatus.ProposalsRegistrationEnded, WorkflowStatus.VotingSessionStarted);\r\n    }\r\n\r\n    function vote(uint _proposalId) public checkStage(WorkflowStatus.VotingSessionStarted) {\r\n        require(voters[msg.sender].isRegistered, unicode\"Vous n'tes pas enregistr\");\r\n        require(!voters[msg.sender].hasVoted, unicode\"Vous avez dj vot\");\r\n        require(_proposalId < proposals.length, \"ID invalide\");\r\n\r\n        voters[msg.sender].hasVoted = true;\r\n        voters[msg.sender].votedProposalId = _proposalId;\r\n        proposals[_proposalId].voteCount++;\r\n        emit Voted(msg.sender, _proposalId);\r\n    }\r\n\r\n    function endVotingSession() public checkAdmin checkStage(WorkflowStatus.VotingSessionStarted) {\r\n        status = WorkflowStatus.VotingSessionEnded;\r\n        emit WorkflowStatusChange(WorkflowStatus.VotingSessionStarted, WorkflowStatus.VotingSessionEnded);\r\n    }\r\n\r\n    function countVotes() public checkAdmin checkStage(WorkflowStatus.VotingSessionEnded) {\r\n        status = WorkflowStatus.VotesTallied;\r\n        emit WorkflowStatusChange(WorkflowStatus.VotingSessionEnded, WorkflowStatus.VotesTallied);\r\n\r\n        uint[] memory topProposalIds = new uint[](numberOfWinningProposals);\r\n\r\n        for (uint j = 0; j < numberOfWinningProposals; j++) {\r\n            uint maxVoteCount = 0;\r\n            uint winningProposalId = 0;\r\n            for (uint i = 0; i < proposals.length; i++) {\r\n                if (proposals[i].voteCount > maxVoteCount) {\r\n                    maxVoteCount = proposals[i].voteCount;\r\n                    winningProposalId = i;\r\n                }\r\n            }\r\n            topProposalIds[j] = winningProposalId;\r\n            //pour viter de reslectionner cette proposition, on mets son compte  0\r\n            proposals[winningProposalId].voteCount = 0;\r\n        }\r\n        winningProposalIds = topProposalIds;\r\n    }\r\n\r\n    function getWinner() public view returns (uint[] memory){\r\n        require(status == WorkflowStatus.VotesTallied, unicode\"Les votes n'ont pas t compts\");\r\n        return winningProposalIds;\r\n    }\r\n}",
  "sourcePath": "C:\\Users\\LeaBe\\smartcontracts\\economie_durable\\dapp\\contracts\\Voting.sol",
  "compiler": {
    "name": "solc",
    "version": "0.8.18+commit.87f61d96.Emscripten.clang"
  },
  "schemaVersion": "3.4.16",
  "updatedAt": "2023-10-28T16:25:28.068Z",
  "networkType": "ethereum",
  "devdoc": {
    "kind": "dev",
    "methods": {},
    "version": 1
  },
  "userdoc": {
    "kind": "user",
    "methods": {},
    "version": 1
  }
}